:020000040800F2
:1000000000000820F55C0108D5530108E3530108FE
:10001000E9530108EF530108F553010800000000FF
:10002000000000000000000000000000114900086E
:10003000FB53010800000000E14A000809540108D0
:10004000455D0108455D0108455D0108455D010804
:10005000455D0108455D0108455D0108455D0108F4
:10006000455D0108455D0108455D0108455D0108E4
:10007000455D0108455D0108455D0108455D0108D4
:10008000455D0108455D0108455D0108455D0108C4
:10009000455D0108455D0108455D0108455D0108B4
:1000A000455D010815540108455D0108455D0108DD
:1000B000455D0108455D0108455D0108455D010894
:1000C000455D0108455D0108455D0108455D010884
:1000D000455D0108455D0108455D0108455D010874
:1000E000455D0108455D0108455D0108455D010864
:1000F000455D0108455D0108455D0108455D010854
:10010000455D0108455D0108455D0108455D010843
:10011000455D0108455D0108455D0108455D010833
:10012000455D0108455D0108455D0108455D010823
:10013000455D010829540108455D0108455D010838
:10014000455D0108455D0108455D0108455D010803
:10015000455D0108455D0108455D0108455D0108F3
:10016000455D0108455D0108455D0108455D0108E3
:10017000455D0108455D0108455D0108000000007E
:10018000455D0108455D0108455D0108455D0108C3
:10019000455D0108455D0108455D0108455D0108B3
:1001A000455D0108455D0108455D0108455D0108A3
:1001B000455D0108455D0108455D0108455D010893
:1001C000455D0108455D010800000000455D01082E
:1001D000455D0108455D0108455D0108455D010873
:1001E000455D0108455D0108455D0108455D010863
:0801F000455D0108455D0108B1
:1002000010B5054C237833B9044B13B10448AFF350
:1002100000800123237010BDA80100200000000011
:100220009C7C010808B5034B1BB103490348AFF39D
:10023000008008BD00000000AC0100209C7C01088B
:1002400001F0FF01102A2BDB10F0070F08D010F887
:10025000013B013A8B422DD010F0070F42B3F6D18B
:10026000F0B441EA012141EA014122F007047FF0A4
:1002700000070023F0E80256083C85EA010586EAFB
:10028000010685FA47F5A3FA87F586FA47F6A5FA37
:1002900087F68EB9EED1F0BC01F0FF0102F0070243
:1002A00032B110F8013B013A83EA010313B1F8D1EE
:1002B0000020704701387047002D06BF35460338CF
:1002C000073815F0010F07D1013015F4807F02BF08
:1002D000013015F4C03F0130F0BC0138704700BF59
:1002E00081F0004102E000BF83F0004330B54FEAE7
:1002F00041044FEA430594EA050F08BF90EA020F54
:100300001FBF54EA000C55EA020C7FEA645C7FEAE6
:10031000655C00F0E2804FEA5454D4EB5555B8BF09
:100320006D420CDD2C4480EA020281EA030382EA7A
:10033000000083EA010180EA020281EA0303362D0C
:1003400088BF30BD11F0004F4FEA01314FF4801CDF
:100350004CEA113102D0404261EB410113F0004FF1
:100360004FEA03334CEA133302D0524263EB4303A8
:1003700094EA050F00F0A780A4F10104D5F1200E46
:100380000DDB02FA0EFC22FA05F2801841F10001A1
:1003900003FA0EF2801843FA05F359410EE0A5F175
:1003A00020050EF1200E012A03FA0EFC28BF4CF0A6
:1003B000020C43FA05F3C01851EBE37101F000455C
:1003C00007D54FF0000EDCF1000C7EEB00006EEB69
:1003D0000101B1F5801F1BD3B1F5001F0CD34908F3
:1003E0005FEA30004FEA3C0C04F101044FEA44524A
:1003F00012F5800F80F09A80BCF1004F08BF5FEAD1
:10040000500C50F1000041EB045141EA050130BDB0
:100410005FEA4C0C404141EB010111F4801FA4F153
:100420000104E9D191F0000F04BF01460020B1FAA8
:1004300081F308BF2033A3F10B03B3F120020CDAE0
:100440000C3208DD02F1140CC2F10C0201FA0CF0BE
:1004500021FA02F10CE002F11402D8BFC2F1200C23
:1004600001FA02F120FA0CFCDCBF41EA0C019040D9
:10047000E41AA2BF01EB0451294330BD6FEA040422
:100480001F3C1CDA0C340EDC04F11404C4F120020D
:1004900020FA04F001FA02F340EA030021FA04F31F
:1004A00045EA030130BDC4F10C04C4F1200220FA76
:1004B00002F001FA04F340EA0300294630BD21FAB4
:1004C00004F0294630BD94F0000F83F4801306BF7A
:1004D00081F480110134013D4EE77FEA645C18BF6E
:1004E0007FEA655C29D094EA050F08BF90EA020F05
:1004F00005D054EA000C04BF1946104630BD91EAFD
:10050000030F1EBF0021002030BD5FEA545C05D1FF
:100510004000494128BF41F0004130BD14F580043E
:100520003CBF01F5801130BD01F0004545F0FE41B2
:1005300041F470014FF0000030BD7FEA645C1ABFE7
:10054000194610467FEA655C1CBF0B46024650EA1E
:10055000013406BF52EA033591EA030F41F400214A
:1005600030BD00BF90F0000F04BF0021704730B5D0
:100570004FF4806404F132044FF000054FF00001A5
:1005800050E700BF90F0000F04BF0021704730B566
:100590004FF4806404F1320410F0004548BF40423B
:1005A0004FF000013EE700BF42004FEAE2014FEA90
:1005B00031014FEA02701FBF12F07F4393F07F4F6B
:1005C00081F06051704792F0000F14BF93F07F4F9D
:1005D000704730B54FF4607401F0004521F00041E0
:1005E00020E700BF50EA010208BF704730B54FF066
:1005F00000050AE050EA010208BF704730B511F06B
:10060000004502D5404261EB41014FF4806404F1A2
:1006100032045FEA915C3FF4DCAE4FF003025FEA24
:10062000DC0C18BF03325FEADC0C18BF033202EBAC
:10063000DC02C2F1200300FA03FC20FA02F001FA06
:1006400003FE40EA0E0021FA02F11444C1E600BFA5
:1006500070B54FF0FF0C4CF4E06C1CEA11541DBF58
:100660001CEA135594EA0C0F95EA0C0F00F0DEF823
:100670002C4481EA030621EA4C5123EA4C5350EA08
:10068000013518BF52EA033541F4801143F4801359
:1006900038D0A0FB02CE4FF00005E1FB02E506F0EA
:1006A0000042E0FB03E54FF00006E1FB03569CF03F
:1006B000000F18BF4EF0010EA4F1FF04B6F5007F45
:1006C00064F5407404D25FEA4E0E6D4146EB0606B7
:1006D00042EAC62141EA55514FEAC52040EA5E5040
:1006E0004FEACE2EB4F1FD0C88BFBCF5E06F1ED8EA
:1006F000BEF1004F08BF5FEA500E50F1000041EB21
:10070000045170BD06F0004646EA010140EA0200CD
:1007100081EA0301B4EB5C04C2BFD4EB0C0541EAEF
:10072000045170BD41F480114FF0000E013C00F304
:10073000AB8014F1360FDEBF002001F0004170BD28
:10074000C4F10004203C35DA0C341BDC04F1140441
:10075000C4F1200500FA05F320FA04F001FA05F2CD
:1007600040EA020001F0004221F0004110EBD3709A
:1007700021FA04F642EB06015EEA430E08BF20EAC6
:10078000D37070BDC4F10C04C4F1200500FA04F369
:1007900020FA05F001FA04F240EA020001F00041FB
:1007A00010EBD37041F100015EEA430E08BF20EA6E
:1007B000D37070BDC4F1200500FA05F24EEA020EB6
:1007C00020FA04F301FA05F243EA020321FA04F0E5
:1007D00001F0004121FA04F220EA020000EBD3709C
:1007E0005EEA430E08BF20EAD37070BD94F0000F9C
:1007F0000FD101F00046400041EB010111F4801FD0
:1008000008BF013CF7D041EA060195F0000F18BF80
:10081000704703F00046520043EB030313F4801FBC
:1008200008BF013DF7D043EA0603704794EA0C0F76
:100830000CEA135518BF95EA0C0F0CD050EA41068C
:1008400018BF52EA4306D1D181EA030101F0004109
:100850004FF0000070BD50EA410606BF1046194631
:1008600052EA430619D094EA0C0F02D150EA01363D
:1008700013D195EA0C0F05D152EA03361CBF10467E
:1008800019460AD181EA030101F0004141F0FE411D
:1008900041F470014FF0000070BD41F0FE4141F4A1
:1008A000780170BD70B54FF0FF0C4CF4E06C1CEAA1
:1008B00011541DBF1CEA135594EA0C0F95EA0C0F56
:1008C00000F0A7F8A4EB050481EA030E52EA033511
:1008D0004FEA013100F088804FEA03334FF0805532
:1008E00045EA131343EA12634FEA022245EA11155F
:1008F00045EA10654FEA00260EF000419D4208BF10
:10090000964244F1FD0404F5407402D25B084FEABC
:100910003202B61A65EB03055B084FEA32024FF468
:1009200080104FF4002CB6EB020E75EB030E22BFC5
:10093000B61A754640EA0C005B084FEA3202B6EB85
:10094000020E75EB030E22BFB61A754640EA5C0034
:100950005B084FEA3202B6EB020E75EB030E22BFC4
:10096000B61A754640EA9C005B084FEA3202B6EBC5
:10097000020E75EB030E22BFB61A754640EADC0084
:1009800055EA060E18D04FEA051545EA16754FEAE6
:1009900006164FEAC30343EA52734FEAC2025FEA04
:1009A0001C1CC0D111F4801F0BD141EA00014FF093
:1009B00000004FF0004CB6E711F4801F04BF014364
:1009C0000020B4F1FD0C88BFBCF5E06F3FF6AFAE80
:1009D000B5EB030C04BFB6EB020C5FEA500C50F110
:1009E000000041EB045170BD0EF0004E4EEA113193
:1009F00014EB5C04C2BFD4EB0C0541EA045170BD9A
:100A000041F480114FF0000E013C90E645EA060EDD
:100A10008DE60CEA135594EA0C0F08BF95EA0C0F0B
:100A20003FF43BAF94EA0C0F0AD150EA01347FF453
:100A300034AF95EA0C0F7FF425AF104619462CE72A
:100A400095EA0C0F06D152EA03353FF4FDAE10468D
:100A5000194622E750EA410618BF52EA43067FF4DE
:100A6000C5AE50EA41047FF40DAF52EA43057FF46E
:100A7000EBAE12E74FF0FF3C06E000BF4FF0010C79
:100A800002E000BF4FF0010C4DF804CD4FEA410CDD
:100A90007FEA6C5C4FEA430C18BF7FEA6C5C1BD0AA
:100AA00001B050EA410C0CBF52EA430C91EA030F2B
:100AB00002BF90EA020F0020704710F1000F91EA88
:100AC000030F58BF994208BF90422CBFD8176FEA56
:100AD000E37040F0010070474FEA410C7FEA6C5C24
:100AE00002D150EA013C07D14FEA430C7FEA6C5C2B
:100AF000D6D152EA033CD3D05DF8040B704700BF57
:100B00008446104662468C461946634600E000BFA4
:100B100001B5FFF7B7FF002848BF10F1000F01BD76
:100B20004DF808EDFFF7F4FF0CBF012000205DF841
:100B300008FB00BF4DF808EDFFF7EAFF34BF0120C6
:100B400000205DF808FB00BF4DF808EDFFF7E0FF5F
:100B500094BF012000205DF808FB00BF4DF808EDB0
:100B6000FFF7CEFF94BF012000205DF808FB00BF17
:100B70004DF808EDFFF7C4FF34BF012000205DF8F9
:100B800008FB00BF4FEA410C7FEA6C5C02D150EADF
:100B9000013C0AD14FEA430C7FEA6C5C02D152EA75
:100BA000033C02D14FF0000070474FF00100704746
:100BB0004A0011D212F5001211D20DD56FF47873DC
:100BC000B3EB62520ED44FEAC12343F0004343EA31
:100BD000505323FA02F070474FF00000704750EA7C
:100BE000013002D14FF0FF3070474FF000007047E6
:100BF0004FEA4102B2F1E04324BFB3F5001CDCF13F
:100C0000FE5C0DD901F0004C4FEAC0024CEA507076
:100C1000B2F1004F40EB830008BF20F001007047A5
:100C200011F0804F21D113F13872BCBF01F00040A8
:100C3000704741F480114FEA5252C2F11802C2F1DA
:100C4000200C10FA0CF320FA02F018BF40F001005B
:100C50004FEAC1234FEAD32303FA0CFC40EA0C000D
:100C600023FA02F34FEA4303CCE77FEA625307D14A
:100C700050EA01331EBF4FF0FE4040F44000704781
:100C800001F0004040F0FE4040F40000704700BF1B
:100C900053B94AB9002908BF00281CBF4FF0FF31E3
:100CA0004FF0FF3000F07AB9ADF1080C6DE904CED9
:100CB00000F006F8DDF804E0DDE9022304B0704737
:100CC0002DE9F0478C460D460446089E002B51D175
:100CD0008A4217466DD9B2FA82FEBEF1000F0BD0E0
:100CE000CEF1200C01FA0EF520FA0CFC02FA0EF7F8
:100CF0004CEA050C00FA0EF44FEA174A250CBCFB2F
:100D0000FAF81FFA87F90AFB18CC45EA0C4508FBEC
:100D100009F3AB420AD9ED1908F1FF3280F02381C3
:100D2000AB4240F22081A8F102083D44ED1AA4B282
:100D3000B5FBFAF00AFB105544EA054400FB09F93B
:100D4000A14509D9E41900F1FF3380F00A81A145DA
:100D500040F2078102383C44A4EB090440EA084011
:100D60000021002E61D024FA0EF400233460736059
:100D7000BDE8F0878B4207D9002E54D0002186E8C9
:100D800021000846BDE8F087B3FA83F1002940F05E
:100D90008E80AB4202D3824200F2FA80841A65EB65
:100DA00003050120AC46002E3FD086E81010BDE8B8
:100DB000F08712B90127B7FBF2F7B7FA87FEBEF149
:100DC000000F34D1EB1B3A0C1FFA87FC0121B3FB57
:100DD000F2F8250C02FB183345EA03450CFB08F337
:100DE000AB4207D9ED1908F1FF3002D2AB4200F255
:100DF000D1808046ED1AA3B2B5FBF2F002FB10558C
:100E000043EA05440CFB00FCA44507D9E41900F1B2
:100E1000FF3302D2A44500F2B8801846A4EB0C04BC
:100E200040EA08409DE731463046BDE8F087CEF104
:100E3000200405FA0EF307FA0EF720FA04F83A0C2C
:100E400025FA04F448EA0308B4FBF2F14FEA184526
:100E500002FB11441FFA87FC45EA044501FB0CF331
:100E6000AB4200FA0EF409D9ED1901F1FF3080F020
:100E70008A80AB4240F2878002393D44EB1A1FFA68
:100E800088F5B3FBF2F002FB103345EA034500FBA3
:100E90000CF3AB4207D9ED1900F1FF386FD2AB422A
:100EA0006DD902383D44EB1A40EA01418FE7C1F1A8
:100EB000200722FA07F88B4005FA01F448EA0303F9
:100EC00020FA07FE4FEA134CFD404EEA040EB5FB34
:100ED000FCF94FEA1E440CFB19551FFA83F844EA4B
:100EE000054509FB08F4AC4202FA01F200FA01FAE6
:100EF00008D9ED1809F1FF3043D2AC4241D9A9F12C
:100F000002091D442D1B1FFA8EFEB5FBFCF00CFBE5
:100F100010554EEA054400FB08F8A04507D9E4182F
:100F200000F1FF3529D2A04527D902381C4440EAF8
:100F30000940A4EB0804A0FB02894C45C6464D4677
:100F400015D312D056B1BAEB0E0364EB050404FAC4
:100F500007F7CB401F43CC40376074600021BDE8E9
:100F6000F0871846F8E69046E0E6C245EAD2B8EBCC
:100F7000020E69EB03050138E4E72846D7E740464F
:100F800091E78146BEE7014678E702383C4445E7F1
:100F9000084608E7A8F102083D442BE7704700BF68
:100FA00080B500AF032000F0BBFC002014F0BAF9BC
:100FB00014F06AF90023184680BD000080B400AF29
:100FC000064B1B781A46064B1B681344044A1360F1
:100FD00000BFBD465DF8047B704700BF00000020E5
:100FE000A041002080B400AF034B1B681846BD46EB
:100FF0005DF8047B704700BFA041002080B584B03D
:1010000000AF7860FFF7EEFFB8607B68FB60FB68BD
:10101000B3F1FF3F05D0094B1B781A46FB68134418
:10102000FB6000BFFFF7DEFF0246BB68D21AFB6819
:101030009A42F7D300BF1037BD4680BD00000020A4
:1010400080B584B000AF78600023FB737B68002B11
:1010500001D1012331E07B681B6C002B09D17B6837
:1010600000225A647B68002283F83C20786811F0E3
:10107000D9FE7B681B6C03F01003002B16D17B6834
:101080001A6C104B134043F002027B681A647868B4
:1010900000F084FA7B6800225A647B681B6C23F0A2
:1010A000030343F001027B681A6401E00123FB7330
:1010B0007B68002283F83C20FB7B18461037BD4636
:1010C00080BD00BFFDEEFFFF80B485B000AF78604B
:1010D0000023FB607B6893F83C30012B01D1022395
:1010E00085E07B68012283F83C207B681B689B6855
:1010F00003F00103012B18D07B681B687A68126823
:10110000926842F001029A603C4B1B683C4AA2FB89
:1011100003239A0C13465B001344FB6002E0FB6858
:10112000013BFB60FB68002BF9D17B681B689B6867
:1011300003F00103002B59D07B681A6C314B13402C
:1011400043F480727B681A647B681B685B6803F4F5
:101150008063002B07D07B681B6C23F4405343F45F
:1011600080527B681A647B681B6C03F48053002BED
:1011700006D07B685B6C23F006027B685A6402E051
:101180007B6800225A647B68002283F83C207B68DD
:101190001B686FF022021A601B4B5B6803F01F0391
:1011A000002B0FD17B681B689B6803F04053002B1A
:1011B0001CD17B681B687A681268926842F0804292
:1011C0009A6013E07B681B68104A93420ED17B68DB
:1011D0001B689B6803F04053002B07D17B681B689A
:1011E0007A681268926842F080429A60002318463A
:1011F0001437BD465DF8047B704700BF180100201E
:1012000083DE1B43FEF8FFFF002301400020014066
:1012100080B584B000AF786039600023FB607B68E4
:101220001B689B6803F48063002B12D07B681B68EB
:101230009B6803F48073002B0BD07B681B6C43F01E
:1012400020027B681A647B68002283F83C2001231B
:101250005CE0FFF7C7FEF8601AE03B68B3F1FF3FC0
:1012600016D03B68002B07D0FFF7BCFE0246FB6898
:10127000D21A3B689A420BD97B681B6C43F004027C
:101280007B681A647B68002283F83C2003233DE0DE
:101290007B681B681B6803F00203022BDDD17B68AF
:1012A0001B686FF012021A607B681B6C43F40072BB
:1012B0007B681A647B681B689B6803F04053002BB3
:1012C00023D17B689B69002B1FD17B681B68DB6A7D
:1012D00003F47003002B06D07B681B689B6803F443
:1012E0008063002B11D17B681B6C23F480727B68B8
:1012F0001A647B681B6C03F48053002B05D17B6858
:101300001B6C43F001027B681A64002318461037F7
:10131000BD4680BD80B483B000AF78607B681B6839
:10132000DB6C18460C37BD465DF8047B7047000047
:1013300090B484B000AF786039600023FB607B68B4
:1013400093F83C30012B01D1022317E17B68012285
:1013500083F83C203B681B68092B36D97B681A68E8
:101360007B681B68D9683B681B689BB218460346BC
:101370005B0003441E3B072000FA03F3DB430B40F2
:10138000D3603B681B68804A93420AD17B681B6824
:101390007A681268D1683A68926812060A43DA607D
:1013A00037E07B681A687B681B68D9683B68986877
:1013B0003B681B689BB21C4623465B0023441E3BD4
:1013C00000FA03F30B43D36023E07B681A687B6861
:1013D0001B6819693B681B689BB2184603465B0093
:1013E0000344072000FA03F3DB430B4013617B68DF
:1013F0001A687B681B6819693B6898683B681B68BA
:101400009BB21C4623465B00234400FA03F30B43C4
:1014100013613B685B68062B24D87B6819687B687E
:101420001B68586B3B685A6813469B001344053B86
:101430001F2202FA03F3DB4303404B637B68196806
:101440007B681B68586B3B681B689BB21C463B68FB
:101450005A6813469B001344053B04FA03F3034305
:101460004B634CE03B685B680C2B24D87B681968A5
:101470007B681B68186B3B685A6813469B001344D3
:10148000233B1F2202FA03F3DB4303400B637B6819
:1014900019687B681B68186B3B681B689BB21C460D
:1014A0003B685A6813469B001344233B04FA03F33A
:1014B00003430B6323E07B6819687B681B68D86A69
:1014C0003B685A6813469B001344413B1F2202FAB3
:1014D00003F3DB430340CB627B6819687B681B68BE
:1014E000D86A3B681B689BB21C463B685A68134627
:1014F0009B001344413B04FA03F30343CB627B6834
:101500001B68224A934209D13B681B68122B05D104
:101510001F4A1F4B5B6843F4800353607B681B6862
:101520001A4A934225D13B681B68174A934203D05D
:101530003B681B68112B1CD1154A154B5B6843F4A3
:10154000000353603B681B680F4A934211D1114B53
:101550001B68114AA2FB03239A0C13469B001344F9
:101560005B00FB6002E0FB68013BFB60FB68002B5B
:10157000F9D17B68002283F83C20002318461037FD
:10158000BD4690BC704700BF120000100020014013
:10159000002301401801002083DE1B4380B483B088
:1015A00000AF7860774A774B5B6823F44033536031
:1015B0007449744B5A687B685B6813434B607B6863
:1015C0001B687A681268526822F480725A607B68DD
:1015D0001B687A68126851687A68126912020A43B5
:1015E0005A607B681B687A681268526822F0407201
:1015F0005A607B681B687A68126851687A689268DA
:101600000A435A607B681B687A681268926822F401
:1016100000629A607B681B687A68126891687A68D1
:10162000D2680A439A607B689B6A574A934222D0E9
:101630007B681B687A681268926822F070629A6010
:101640007B681B687A68126891687A68926A0A43B4
:101650009A607B681B687A681268926822F0405230
:101660009A607B681B687A68126891687A68D26AA7
:101670000A439A600FE07B681B687A681268926878
:1016800022F070629A607B681B687A6812689268C0
:1016900022F040529A607B681B687A6812689268F0
:1016A00022F002029A607B681B687A68126891686F
:1016B0007A68926952000A439A607B681B6A002B21
:1016C0001BD07B681B687A681268526842F400621B
:1016D0005A607B681B687A681268526822F460421C
:1016E0005A607B681B687A68126851687A68526A27
:1016F000013A52030A435A6007E07B681B687A6824
:101700001268526822F400625A607B681B687A682B
:101710001268D26A22F47002DA627B681B687A6807
:101720001268D16A7A68D269013A12050A43DA620C
:101730007B681B687A681268926822F400729A606B
:101740007B681B687A68126891687A68126B52022B
:101750000A439A607B681B687A681268926822F470
:1017600080629A607B681B687A68126891687A6800
:10177000526992020A439A6000BF0C37BD465DF879
:10178000047B7047002301400100000F80B485B046
:1017900000AF78607B6803F00703FB600B4BDB68EE
:1017A000BB60BA684FF6FF031340BB60FB681A02C8
:1017B000BB681A43064B1343BB60044ABB68D36043
:1017C00000BF1437BD465DF8047B704700ED00E0B4
:1017D0000000FA0580B400AF044BDB681B0A03F07D
:1017E00007031846BD465DF8047B704700ED00E036
:1017F00080B483B000AF0346FB71094997F9073005
:101800005B09FA7902F01F02012000FA02F241F8A6
:10181000232000BF0C37BD465DF8047B704700BF36
:1018200000E100E080B483B000AF03463960FB7193
:1018300097F90730002B0BDA0D49FB7903F00F0302
:10184000043B3A68D2B21201D2B20B441A7609E0D4
:10185000084997F907303A68D2B21201D2B20B4464
:1018600083F8002300BF0C37BD465DF8047B70474A
:1018700000ED00E000E100E080B489B000AFF86066
:10188000B9607A60FB6803F00703FB61FB69C3F191
:101890000703042B28BF0423BB61FB690433062B19
:1018A00002D9FB69033B00E000237B610122BB6995
:1018B00002FA03F35A1EBB681A407B699A40012161
:1018C0007B6901FA03F3591E7B680B4013431846EA
:1018D0002437BD465DF8047B7047000080B582B0B8
:1018E00000AF78607B68013BB3F1807F01D30123B7
:1018F0000FE00A4A7B68013B53600F214FF0FF3035
:10190000FFF790FF054B00229A60044B07221A60F4
:10191000002318460837BD4680BD00BF10E000E038
:1019200080B582B000AF78607868FFF72FFF00BF06
:101930000837BD4680BD80B586B000AF0346B960AC
:101940007A60FB7300237B61FFF744FF78617A685C
:10195000B9687869FFF790FF024697F90F30114692
:101960001846FFF75FFF00BF1837BD4680BD80B542
:1019700082B000AF0346FB7197F907301846FFF7B6
:1019800037FF00BF0837BD4680BD80B582B000AFCD
:1019900078607868FFF7A2FF034618460837BD460F
:1019A00080BD000080B483B000AF78607B68042BFA
:1019B00006D1094A084B1B6843F00403136005E095
:1019C000054A054B1B6823F00403136000BF0C3766
:1019D000BD465DF8047B704710E000E080B588B03C
:1019E00000AF78600023FB610023FB60A94BBB6163
:1019F00000237B6100233B617B68002B01D1012325
:101A000083E17B6893F84430DBB2002B06D17B681E
:101A1000002283F84520786811F0FAFA9E4A9E4B1E
:101A20005B6C43F4804353649B4B5B6C03F48043D7
:101A3000BB60BB68994A994B5B6823F40003536011
:101A40009649964B5A687B681B6A13434B607B68C8
:101A50001B687A68126802F58052126842F001022F
:101A600003F580531A60FFF7BDFA786111E0FFF7C4
:101A7000B9FA02467B69D31AB3F5FA7F09D97B68B4
:101A8000032283F844207B68002283F84520032347
:101A90003BE17B681B6803F580531B6803F001037F
:101AA000002BE4D17B681B681B69FB61FB6923F099
:101AB0001C03FB6101F0E0FDB861BB69784A934209
:101AC00008D9BB69774A934204D8FB6943F00803FD
:101AD000FB6127E0BB69734A934208D9BB69724A2C
:101AE000934204D8FB6943F00C03FB611AE0BB6925
:101AF0006D4A934203D9BB696C4A934211D9BB69C1
:101B00006A4A934208D9BB69694A934204D8FB697F
:101B100043F00403FB6105E0FB6943F01003FB6144
:101B200000E000BF7B681B68FA691A614FF400424D
:101B30000021786800F019FC0346002B0BD001232C
:101B40003B613969786800F0A5FC7B68012283F865
:101B500044200123D9E0FF20FFF750FA7B685B683F
:101B6000002B00F0A780FFF73DFA786107F10C0326
:101B70001A460121786800F090FBFFF733FA02461D
:101B80007B69D31A41F2883293420FD901233B611A
:101B90003969786800F07EFC7B68012283F8442074
:101BA0007B68002283F845200323AEE0FB6803F046
:101BB0000403002BDAD04FF480520021786800F043
:101BC000D4FB0346002B0BD001233B6139697868B5
:101BD00000F060FC7B68012283F84420012394E03C
:101BE000FFF700FA786107F10C031A4601217868C3
:101BF00000F053FBFFF7F6F902467B69D31A41F276
:101C0000883293420FD901233B613969786800F02B
:101C100041FC7B68012283F844207B68002283F822
:101C20004520032371E0FB6803F02003002BDAD08A
:101C300007F10C031A461021786800F02EFB0346CA
:101C4000002B0BD001233B613969786800F022FC3E
:101C50007B68012283F84420012356E0FB6803F0EF
:101C60000403002B04D07B684FF40062DA6002E0CA
:101C70007B680022DA60FB6803F00203002B03D0CC
:101C80007B6800229A6037E07B684FF480429A605C
:101C900032E000BF00879303003802400038014063
:101CA000FF2C3101BF0E1602FF869303FFE0F505FE
:101CB0007FD1F0087B68DB68DB089AB27B689B68A1
:101CC0005B089BB213439BB21A460021786800F070
:101CD0004CFB0346002B0BD001233B61396978682C
:101CE00000F0D8FB7B68012283F8442001230CE03C
:101CF00040F6FF70FFF782F93969786800F0CAFB97
:101D00007B68012283F84420002318462037BD4613
:101D100080BD00BF80B487B000AFF860B9607A6062
:101D20003B6000237B61FB6893F84530012B01D1B8
:101D3000022352E0FB68012283F84520FB6802225F
:101D400083F84420FB68BA68DA6200237B6130E0E4
:101D50007B695B01BA6813443B613B694FF48012B5
:101D60001A607B6940F2F45202FB03F37A68134471
:101D70001A463B699A60FB68DB69002B05D13B6919
:101D80001B6843F440023B691A603B685A1E7B693A
:101D90009A4208D97B6901335B01BA6813441A4639
:101DA0003B69DA6002E0BA683B69DA607B6901335B
:101DB0007B617A693B689A42CAD3FB681968BA6842
:101DC00041F210030B441A60FB68012283F844209F
:101DD000FB68002283F84520002318461C37BD46C7
:101DE0005DF8047B704780B487B000AFF860B960DD
:101DF0007A603B6000237B61FB6893F84530012BE0
:101E000001D1022356E0FB68012283F84520FB68DC
:101E1000022283F84420FB68BA689A6200237B613F
:101E200034E07B695B01BA6813443B613B694FF066
:101E300000421A603B6944F2F4525A607B6940F2F6
:101E4000F45202FB03F37A6813441A463B699A6022
:101E5000FB689B69012B05D13B695B6823F000425D
:101E60003B695A603B685A1E7B699A4208D97B6974
:101E700001335B01BA6813441A463B69DA6002E039
:101E8000BA683B69DA607B6901337B617A693B68D8
:101E90009A42C6D3FB681968BA6841F20C030B4436
:101EA0001A60FB68012283F84420FB68002283F853
:101EB0004520002318461C37BD465DF8047B70475B
:101EC00080B487B000AF7860396000237B61002365
:101ED000FB6000233B617B6893F84530012B01D107
:101EE0000223CDE07B68012283F845207B68022233
:101EF00083F844203B68002B09D17B68012283F8DA
:101F000044207B68002283F845200123B8E07B68E9
:101F1000DB6A1B68002B09DA7B68122283F84420F5
:101F20007B68002283F845200123A9E03B6840F24A
:101F3000F452934215D93B68544AA2FB03239B0AEF
:101F40007B613A68514BA3FB02139B0A40F2F451A8
:101F500001FB03F3D31A002B05D07B6901337B61AE
:101F600001E001237B617B69012B1CD17B68DB6A6B
:101F70007A68D26A126842F040521A607B68DB6A63
:101F80003A68C2F30C025A607B68DB6A7A68D26AEC
:101F9000126842F000421A607B68DB6ADB681A460E
:101FA0007B68DA624BE000233B6144E07B68DB6ADC
:101FB0007A68D26A126822F040521A603B69002B9C
:101FC00007D17B68DB6A7A68D26A126842F0805275
:101FD0001A607B68DB6A40F2F4525A607B695A1ED1
:101FE0003B699A4216D17B68DB6A7A68D26A1268CA
:101FF00042F000521A607B69254A02FB03F23B68FB
:10200000134403F2F453FB607B68DB6AFA68C2F3A3
:102010000C025A607B68DB6A7A68D26A126842F006
:1020200000421A607B68DB6ADB681A467B68DA620A
:102030003B6901333B613A697B699A42B6D37B685D
:102040001A6841F2140313441B6803F00403002BC5
:102050000DD07B681A6841F21403134404221A60FD
:102060007B681A6841F20403134400221A607B68FB
:10207000012283F844207B68002283F84520002356
:1020800018461C37BD465DF8047B70470BB002ACA8
:102090000CFAFFFF80B485B000AF78600023FB60CE
:1020A0007B6893F84530012B01D1022374E07B68F3
:1020B000012283F845207B68022283F844205AE0FD
:1020C000FB680133FB607B689B6A1B6803F4407309
:1020D000B3F5007F0DD17B689A6A7B681A637B68D1
:1020E00001229A637B689B6ADB681A467B689A6266
:1020F00041E07B689B6A1B6803F44073002B0BD1A3
:102100007B689B6B5A1C7B689A637B689B6ADB6865
:102110001A467B689A622EE07B689A6A7B685A63EB
:102120007B689B6B5A1C7B689A637B689B6B012B5B
:1021300003D17B689A6A7B681A637B689B6A1B6819
:102140001B0CC3F30D031A1F7B68DA637B681B6BE0
:102150009A687B681A647B689B6ADB681A467B68AE
:102160009A627B68012283F844207B68002283F80E
:102170004520002310E07B689B6A1B68002B02DB74
:10218000FB68032B9CD97B68012283F844207B6881
:10219000002283F84520012318461437BD465DF818
:1021A000047B704780B582B000AF78607B681A68A6
:1021B00041F2140313441B6803F04003402B12D177
:1021C000786810F0ADFF7B681A6841F2140313447D
:1021D00040221A607B68012283F844207B68002239
:1021E00083F845201BE07B681A6841F2140313440E
:1021F0001B6803F00103012B11D1786800F039F856
:102200007B681A6841F21403134401221A607B6848
:10221000012283F844207B68002283F845207B68F4
:102220001A6841F2140313444FF480321A607B6839
:102230001A6841F2140313441B6803F40043B3F516
:10224000004F12D1786800F01EF87B681A6841F2DE
:10225000140313444FF400421A607B68012283F890
:1022600044207B68002283F8452000BF0837BD4624
:1022700080BD80B483B000AF786000BF0C37BD462E
:102280005DF8047B704780B483B000AF786000BF16
:102290000C37BD465DF8047B704780B586B000AF53
:1022A000F8600B467A607B8100237B6100233B61F1
:1022B000FB6893F84430DBB2822B01D1022350E05B
:1022C000FB68822283F84420FB681B681B697B61E2
:1022D0007B6903F01C037B61FB681B8ADB029BB2FA
:1022E0007A6913437B617B899B0103F4F8637A6904
:1022F00013437B617B6923F002037B617B6943F0BD
:1023000001037B61FB681B687A691A61FEF76AFE4C
:10231000386115E0FEF766FE02463B69D31AB3F555
:10232000803F09D3FB68012283F84420FB68002228
:1023300083F84520032314E0FB681B681B697B615D
:102340007B6903F00103002BE4D1FB681B685B6928
:102350009BB21A467B681A60FB68012283F844200E
:10236000002318461837BD4680BD80B586B000AF43
:10237000F8600B467A607B8100237B6100233B6120
:10238000FB6893F84430DBB2422B01D102234EE0CC
:10239000FB68422283F84420FB681B681B697B6151
:1023A0007B6903F01C037B61FB681B8ADB029BB229
:1023B0007A6913437B617B899B0103F4F8637A6933
:1023C00013437B617B6943F002037B617B6943F0CC
:1023D00001037B61FB681B687A6892B25A61FB68F3
:1023E0001B687A691A61FEF7FDFD386115E0FEF79A
:1023F000F9FD02463B69D31AB3F5803F09D3FB6868
:10240000012283F84420FB68002283F8452003233F
:102410000DE0FB681B681B697B617B6903F00103AE
:10242000002BE4D1FB68012283F8442000231846E6
:102430001837BD4680BD80B582B000AF78607B683C
:1024400093F84530012B01D102231FE07B68012264
:1024500083F845207B68022283F84420786800F0E6
:1024600019FA786800F033FA786800F07DFA786835
:1024700000F04AFA786800F05FFA7B68012283F87E
:1024800044207B68002283F8452000231846083743
:10249000BD4680BD80B5B0B000AF78603960002324
:1024A000C7F8BC303B68002B07D07B684FF4006254
:1024B000DA607B684FF480429A600023BB6400239B
:1024C000FB6400233B6500237B650023BB65002381
:1024D000FB657B68DB69002B03D14FF480633B66AF
:1024E00001E000233B664FF400737B660023BB666C
:1024F0000023FB6600233B6700237B670023BB6749
:102500004023FB670023C7F880300023C7F88430DE
:102510000023C7F888300023C7F88C300023C7F8A1
:1025200090300023C7F894300023C7F89830002378
:10253000C7F89C308023C7F8A0300023C7F8A43028
:102540000023C7F8A8300023C7F8AC300023C7F831
:10255000B0300023C7F8B4300023C7F8B8307B6828
:102560001B681B68C7F8BC30D7F8BC20AA4B1340C7
:10257000C7F8BC30BA6CFB6C1A433B6D1A437B6DD9
:102580001A437B689B681A43BB6D1A43FB6D1A4361
:102590007B68DB681A433B6E1A437B6E1A43BB6E43
:1025A0001A43FB6E1A433B6F1343D7F8BC20134307
:1025B000C7F8BC307B681B68D7F8BC201A607B6802
:1025C0001B681B68C7F8BC300120FEF717FD7B684D
:1025D0001B68D7F8BC201A607B681B68796FBA6FDC
:1025E0001143FA6F1143D7F880201143D7F88420A4
:1025F0001143D7F888201143D7F88C201143D7F81E
:1026000090200A435A607B681B685B68C7F8BC303F
:102610000120FEF7F3FC7B681B68D7F8BC205A60EA
:102620007B681B68D7F894209A607B681B68D7F892
:102630009820DA607B681B689B69C7F8BC30D7F8C4
:10264000BC204FF641731340C7F8BC30D7F89C301C
:102650001A04D7F8A0301A43D7F8A4301A43D7F891
:10266000A8301A43D7F8AC301A43D7F8B030134328
:10267000D7F8BC201343C7F8BC307B681B68D7F879
:10268000BC209A617B681B689B69C7F8BC3001203D
:10269000FEF7B4FC7B681B68D7F8BC209A617B68A6
:1026A0001B68D7F8B410D7F8B8200A43DA617B6802
:1026B0001B68DB69C7F8BC300120FEF79FFC7B6814
:1026C0001B68D7F8BC20DA610023BB604FF00073B1
:1026D000FB6000233B614FF400137B610023BB616F
:1026E0000023FB6100233B6200237B620423BB6267
:1026F0004FF00073FB624FF480333B634FF4800371
:102700007B634FF40053BB638023FB6300233B6474
:1027100000237B647B681A6841F2180313441B682A
:10272000C7F8BC30D7F8BC203C4B1340C7F8BC30CE
:10273000BA68FB681A433B691A437B691A43BB6951
:102740001A43FB691A433B6A1A437B6A1A43BB6A02
:102750001343D7F8BC201343C7F8BC307B681A6812
:1027600041F218031344D7F8BC201A607B681A683A
:1027700041F2180313441B68C7F8BC300120FEF770
:102780003DFC7B681A6841F218031344D7F8BC205B
:102790001A607B681B68F96A3A6B11437A6B1143C4
:1027A000BA6B1143FA6B11433A6C920011437A6C85
:1027B0000A4342F4000203F580531A607B681B68E9
:1027C00003F580531B68C7F8BC300120FEF716FCE8
:1027D0007B681B6803F58053D7F8BC201A607B68C0
:1027E0009B69012B0DD17B6819687B681A6841F2DF
:1027F0001C0313441B680A4A1A4341F21C030B448E
:102800001A607B685B691A460021786800F00AF854
:1028100000BFC037BD4680BD0F8120FF233FDEF8DB
:102820004000010080B487B000AFF860B9607A6002
:102830007B6805331B781B027A68043212781343D5
:102840007B61BA68114B13441A467B6913607B683D
:1028500003331B781A067B6802331B781B041A4368
:102860007B6801331B781B0213437A681278134389
:102870007B61BA68064B13441A467B69136000BF3C
:102880001C37BD465DF8047B704700BF40800240A6
:102890004480024080B584B000AF78600023FB60C4
:1028A0007B681B687A681268126842F008021A6036
:1028B0007B681B681B68FB600120FEF79FFB7B6841
:1028C0001B68FA681A6000BF1037BD4680BD80B52E
:1028D00084B000AF78600023FB607B681B687A6877
:1028E0001268126842F004021A607B681B681B6859
:1028F000FB600120FEF782FB7B681B68FA681A60A8
:1029000000BF1037BD4680BD80B483B000AF786093
:102910007B6819687B681A6841F2180313441B68C6
:1029200043F4005241F218030B441A6000BF0C3705
:10293000BD465DF8047B704780B483B000AF78601B
:102940007B6819687B681A6841F2180313441B6896
:1029500043F0020241F218030B441A6000BF0C3727
:10296000BD465DF8047B704780B584B000AF7860E9
:102970000023FB607B6819687B681A6841F21803C2
:1029800013441B6843F4801241F218030B441A608D
:102990007B681A6841F2180313441B68FB6001202E
:1029A000FEF72CFB7B681968FA6841F218030B44A8
:1029B0001A6000BF1037BD4680BD000080B489B0EA
:1029C00000AF786039600023FB6100237B61002346
:1029D0003B610023BB610023FB6175E10122FB69C0
:1029E00002FA03F37B613B681A687B6913403B6121
:1029F0003A697B699A4240F064813B685B68022BCC
:102A000003D03B685B68122B23D1FB69DA087B6833
:102A1000083253F82230BB61FB6903F007039B00C7
:102A20000F2202FA03F3DB43BA691340BB613B6830
:102A30001A69FB6903F007039B0002FA03F3BA6902
:102A40001343BB61FB69DA087B680832B96943F854
:102A500022107B681B68BB61FB695B00032202FAE2
:102A600003F3DB43BA691340BB613B685B6803F067
:102A70000302FB695B0002FA03F3BA691343BB610B
:102A80007B68BA691A603B685B68012B0BD03B68B6
:102A90005B68022B07D03B685B68112B03D03B6857
:102AA0005B68122B30D17B689B68BB61FB695B0064
:102AB000032202FA03F3DB43BA691340BB613B68AC
:102AC000DA68FB695B0002FA03F3BA691343BB617E
:102AD0007B68BA699A607B685B68BB610122FB69AD
:102AE00002FA03F3DB43BA691340BB613B685B68DE
:102AF0001B0903F00102FB6902FA03F3BA691343ED
:102B0000BB617B68BA695A607B68DB68BB61FB6943
:102B10005B00032202FA03F3DB43BA691340BB6193
:102B20003B689A68FB695B0002FA03F3BA691343D6
:102B3000BB617B68BA69DA603B685B6803F080530D
:102B4000002B00F0BE80654A644B5B6C43F480430D
:102B50005364624B5B6C03F48043FB60FB68604A28
:102B6000FB699B08023352F82330BB61FB6903F019
:102B700003039B000F2202FA03F3DB43BA691340FD
:102B8000BB617B68574A934237D07B68564A934271
:102B900031D07B68554A93422BD07B68544A93428C
:102BA00025D07B68534A93421FD07B68524A934298
:102BB00019D07B68514A934213D07B68504A9342A4
:102BC0000DD07B684F4A934207D07B684E4A9342B0
:102BD00001D1092312E00A2310E008230EE00723A5
:102BE0000CE006230AE0052308E0042306E00323A3
:102BF00004E0022302E0012300E00023FA6902F06E
:102C0000030292009340BA691343BB613449FB69E4
:102C10009B080233BA6941F823203C4B1B68BB6117
:102C20003B69DB43BA691340BB613B685B6803F4F3
:102C30008033002B03D0BA693B691343BB61334A2D
:102C4000BB691360314B5B68BB613B69DB43BA69AD
:102C50001340BB613B685B6803F40033002B03D077
:102C6000BA693B691343BB61284ABB695360274B70
:102C70009B68BB613B69DB43BA691340BB613B683E
:102C80005B6803F48013002B03D0BA693B691343DC
:102C9000BB611E4ABB6993601C4BDB68BB613B692F
:102CA000DB43BA691340BB613B685B6803F4001304
:102CB000002B03D0BA693B691343BB61134ABB695C
:102CC000D360FB690133FB61FB690F2B7FF686AE96
:102CD00000BF2437BD465DF8047B704700380240D2
:102CE0000038014000000240000402400008024099
:102CF000000C024000100240001402400018024084
:102D0000001C02400020024000240240003C014020
:102D100080B485B000AF78600B467B807B681A6911
:102D20007B881340002B02D00123FB7301E00023BA
:102D3000FB73FB7B18461437BD465DF8047B704778
:102D400080B483B000AF78600B467B8013467B7005
:102D50007B78002B03D07A887B689A6103E07B88BC
:102D60001A047B689A6100BF0C37BD465DF8047B8E
:102D70007047000080B582B000AF00237B60234A1B
:102D8000224B1B6C43F080531364204B1B6C03F0ED
:102D900080533B603B681E4A1D4B1B6843F48033E5
:102DA0001360FEF71FF9786009E0FEF71BF9024691
:102DB0007B68D31AB3F57A7F01D9032322E0144B41
:102DC0005B6803F48033B3F5803FEED1104A104BBB
:102DD0001B6843F400331360FEF704F9786009E0E0
:102DE000FEF700F902467B68D31AB3F57A7F01D962
:102DF000032307E0064B5B6803F40033B3F5003FA1
:102E0000EED1002318460837BD4680BD0038024089
:102E10000070004080B586B000AF78600023FB757D
:102E20007B68002B01D101235EE27B681B6803F005
:102E30000103002B00F08780964B9B6803F00C0386
:102E4000042B0CD0934B9B6803F00C03082B12D17E
:102E5000904B5B6803F48003B3F5800F0BD18D4B6F
:102E60001B6803F40033002B6CD07B685B68002B7D
:102E700068D1012338E27B685B68B3F5803F06D1F7
:102E8000844A844B1B6843F4803313602EE07B68D4
:102E90005B68002B0CD17F4A7E4B1B6823F4803388
:102EA00013607C4A7B4B1B6823F4802313601DE076
:102EB0007B685B68B3F5A02F0CD1764A754B1B6815
:102EC00043F480231360734A724B1B6843F48033CE
:102ED00013600BE06F4A6F4B1B6823F48033136061
:102EE0006C4A6C4B1B6823F4802313607B685B681F
:102EF000002B13D0FEF776F8386108E0FEF772F881
:102F000002463B69D31A642B01D90323ECE1614BE0
:102F10001B6803F40033002BF0D014E0FEF762F8D6
:102F2000386108E0FEF75EF802463B69D31A642B6D
:102F300001D90323D8E1574B1B6803F40033002B5E
:102F4000F0D100E000BF7B681B6803F00203002B98
:102F500069D0504B9B6803F00C03002B0BD04D4BFA
:102F60009B6803F00C03082B1CD14A4B5B6803F4ED
:102F70008003002B16D1474B1B6803F00203002B84
:102F800005D07B68DB68012B01D00123ACE141490E
:102F9000404B1B6823F0F8027B681B69DB0013437E
:102FA0000B6040E07B68DB68002B23D0394A394B4B
:102FB0001B6843F001031360FEF714F8386108E062
:102FC000FEF710F802463B69D31A022B01D90323FE
:102FD0008AE1304B1B6803F00203002BF0D02D492F
:102FE0002C4B1B6823F0F8027B681B69DB00134342
:102FF0000B6018E0274A274B1B6823F0010313607E
:10300000FDF7F0FF386108E0FDF7ECFF02463B6991
:10301000D31A022B01D9032366E11E4B1B6803F070
:103020000203002BF0D17B681B6803F00803002B20
:1030300038D07B685B69002B19D0164A154B5B6F43
:1030400043F001035367FDF7CDFF386108E0FDF75A
:10305000C9FF02463B69D31A022B01D9032343E17E
:103060000C4B5B6F03F00203002BF0D01AE0094A0F
:10307000084B5B6F23F001035367FDF7B3FF386123
:103080000AE0FDF7AFFF02463B69D31A022B03D9D2
:10309000032329E100380240954B5B6F03F00203E4
:1030A000002BEED17B681B6803F00403002B00F0BB
:1030B000A4808F4B1B6C03F08053002B0DD18C4AE6
:1030C0008B4B1B6C43F080531364894B1B6C03F0D8
:1030D0008053FB60FB680123FB75864B1B6803F480
:1030E0008073002B18D1834A824B1B6843F4807392
:1030F0001360FDF777FF386108E0FDF773FF0246C4
:103100003B69D31A642B01D90323EDE0794B1B688B
:1031100003F48073002BF0D07B689B68012B06D1F1
:10312000734A734B1B6F43F0010313672DE07B68F9
:103130009B68002B0CD16E4A6D4B1B6F23F0010373
:1031400013676B4A6A4B1B6F23F0040313671CE081
:103150007B689B68052B0CD1654A654B1B6F43F060
:1031600004031367624A624B1B6F43F0010313674A
:103170000BE05F4A5E4B1B6F23F0010313675C4A51
:103180005B4B1B6F23F0040313677B689B68002B6A
:1031900015D0FDF727FF38610AE0FDF723FF02464F
:1031A0003B69D31A41F28832934201D903239BE051
:1031B0004F4B1B6F03F00203002BEED014E0FDF722
:1031C00011FF38610AE0FDF70DFF02463B69D31A93
:1031D00041F28832934201D9032385E0444B1B6FAF
:1031E00003F00203002BEED1FB7D012B05D1404AF9
:1031F0003F4B1B6C23F0805313647B689B69002B4F
:1032000071D03B4B9B6803F00C03082B69D07B68A3
:103210009B69022B4BD1364A354B1B6823F08073D8
:103220001360FDF7DFFE386108E0FDF7DBFE0246C4
:103230003B69D31A022B01D9032355E02C4B1B68A1
:1032400003F00073002BF0D129497B68DA697B68B1
:103250001B6A1A437B685B6A9B011A437B689B6A03
:103260005B08013B1B041A437B68DB6A1B061A439D
:103270007B681B6B1B0713434B601D4A1C4B1B6871
:1032800043F080731360FDF7ADFE386108E0FDF791
:10329000A9FE02463B69D31A022B01D9032323E07E
:1032A000134B1B6803F00073002BF0D01BE0104A97
:1032B0000F4B1B6823F080731360FDF793FE38619A
:1032C00008E0FDF78FFE02463B69D31A022B01D9B5
:1032D000032309E0064B1B6803F00073002BF0D1B9
:1032E00001E0012300E0002318461837BD4680BDE9
:1032F000003802400070004080B584B000AF7860B4
:1033000039600023FB607B68002B01D10123CEE0F4
:10331000694B1B6803F00F023B689A4210D2664962
:10332000654B1B6823F00F023B6813430B60624B35
:103330001B6803F00F023B689A4201D00123B6E0FC
:103340007B681B6803F00203002B20D07B681B689E
:1033500003F00403002B05D0584A584B9B6843F4F4
:10336000E05393607B681B6803F00803002B05D0D3
:10337000524A524B9B6843F4604393604F494F4B12
:103380009B6823F0F0027B689B6813438B607B682B
:103390001B6803F00103002B40D07B685B68012BA6
:1033A00007D1464B1B6803F40033002B15D10123D2
:1033B0007DE07B685B68022B07D1404B1B6803F004
:1033C0000073002B09D1012371E03C4B1B6803F013
:1033D0000203002B01D1012369E03849374B9B6878
:1033E00023F003027B685B6813438B60FDF7FAFDF3
:1033F000F8600AE0FDF7F6FD0246FB68D31A41F2D9
:103400008832934201D9032351E02C4B9B6803F08F
:103410000C027B685B689B009A42EBD1264B1B68D1
:1034200003F00F023B689A4210D92349224B1B68D4
:1034300023F00F023B6813430B601F4B1B6803F024
:103440000F023B689A4201D0012330E07B681B6881
:1034500003F00403002B08D01849184B9B6823F491
:10346000E0527B68DB6813438B607B681B6803F06A
:103470000803002B09D01149104B9B6823F46042CC
:103480007B681B69DB0013438B6000F01DF801466D
:103490000A4B9B681B0903F00F03094AD35C21FA0E
:1034A00003F3084A1360002011F03CFF0023184684
:1034B0001037BD4680BD00BF003C024000380240CE
:1034C000E0A50108180100202DE9F04F8FB000AFF2
:1034D0000023FB6200237B630023BB6200233B636A
:1034E000624B9B6803F00C03042B07D0082B08D019
:1034F000002B40F0B2805E4B3B63B1E05D4B3B6321
:10350000AEE05A4B5B6803F03F03FB62574B5B68CE
:1035100003F48003002B4ED0544B5B689B094FF0A3
:10352000000440F2FF114FF0000201EA030102EA39
:1035300004020B46144660017862786A40EAD36060
:1035400078625B013B62D7E908345B1A64EB0204E2
:103550004FEA841949EA93694FEA8318B8EB0308E4
:1035600069EB04094FEAC903FB61FB6943EA58733D
:10357000FB614FEAC803BB61D7E9068918EB010874
:1035800049EB02094FEA49237B617B6943EAD8533F
:103590007B614FEA48233B61D7E9048940464946AD
:1035A000FB6A4FF000041A462346FDF771FB034601
:1035B0000C467B6343E02D4B5B689B094FF0000496
:1035C00040F2FF114FF0000201EA030102EA040297
:1035D0000B4614466001F860F86840EAD360F86072
:1035E0005B01BB60D7E902345B1A64EB0204A601FD
:1035F00046EA93669D01ED1A66EB0406F3007B60D4
:103600007B6843EA55737B60EB003B6097E86000A2
:103610006D1846EB02064FEA862B4BEA955B4FEAA4
:10362000852A55465E4628463146FB6A4FF000041F
:103630001A462346FDF72CFB03460C467B630B4BD7
:103640005B681B0C03F0030301335B00BB627A6B06
:10365000BB6AB2FBF3F33B6302E0054B3B6300BF85
:103660003B6B18463C37BD46BDE8F08F0038024042
:103670000024F40000127A0080B400AF034B1B68F2
:103680001846BD465DF8047B704700BF1801002056
:1036900080B500AFFFF7F0FF0146054B9B685B0B61
:1036A00003F00703034AD35C21FA03F3184680BDF5
:1036B00000380240F0A5010880B483B000AF786004
:1036C00039607B680F221A60124B9B6803F003027B
:1036D0007B685A600F4B9B6803F0F0027B689A602E
:1036E0000C4B9B6803F4E0527B68DA60094B9B68E3
:1036F000DB0803F4E0527B681A61074B1B6803F098
:103700000F023B681A6000BF0C37BD465DF8047BB2
:10371000704700BF00380240003C024080B584B0D2
:1037200000AF78607B68002B01D1012382E07B68C9
:1037300000229A627B6893F85D30DBB2002B06D1E1
:103740007B68002283F85C20786811F05BFD7B6861
:10375000022283F85D207B681B687A681268126811
:1037600022F040021A607B68DB68B3F5E06F02D993
:103770000023FB6002E04FF48053FB607B68DB6852
:10378000B3F5706F07D07B68DB68B3F5E06F02D0EC
:103790007B6800229A627B681B6B002B0BD17B68D5
:1037A000DB68B3F5E06F03D97B6802221A6302E09D
:1037B0007B6801221A637B681B687A6851687A68A3
:1037C000926811437A68126911437A685269114309
:1037D0007A68926902F4007211437A68D2691143DF
:1037E0007A68126A11437A68926A0A431A607B689F
:1037F0001B687A689269120C02F004017A68526AB6
:1038000011437A68526B11437A68D2681143FA689F
:103810000A435A607B681B687A681268D26922F48E
:103820000062DA617B6800221A667B68012283F8F5
:103830005D20002318461037BD4680BD80B588B096
:1038400000AFF860B9603B601346FB800023BB61AA
:103850000023FB77FB6893F85C30012B01D1022336
:10386000F7E0FB68012283F85C20FDF7BBFBB86141
:10387000FB6893F85D30DBB2012B02D00223FB77AB
:10388000DEE0BB68002B02D0FB88002B02D10123B5
:10389000FB77D5E0FB68032283F85D20FB680022FC
:1038A0001A66FB68BA689A63FB68FA889A87FB68AD
:1038B000FA88DA87FB6800221A64FB680022A3F802
:1038C0004420FB680022A3F84620FB6800221A650A
:1038D000FB680022DA64FB689B68B3F5004F07D1F0
:1038E000FB681B68FA681268126842F480421A602A
:1038F000FB681B681B6803F04003402B07D0FB6884
:103900001B68FA681268126842F040021A60FB688D
:10391000DB68B3F5E06F6ED928E0FB681B689B6835
:1039200003F00203022B0FD1FB681B68BA681288F0
:10393000DA60BB680233BB60FB68DB8F9BB2013B84
:103940009AB2FB68DA8711E03B68002B0BD03B682A
:10395000B3F1FF3F0AD0FDF745FB0246BB69D21A1F
:103960003B689A4202D30323FB7769E0FB68DB8F55
:103970009BB2002BD1D143E0FB681B689B6803F02E
:103980000203022B25D1FB68DB8F9BB2012B0FD9E1
:10399000FB681B68BA681288DA60BB680233BB60D8
:1039A000FB68DB8F9BB2023B9AB2FB68DA8722E0AE
:1039B000FB681B6803F10C02BB68591CB9601B78DB
:1039C0001370FB68DB8F9BB2013B9AB2FB68DA870E
:1039D00011E03B68002B0BD03B68B3F1FF3F0AD0EE
:1039E000FDF700FB0246BB69D21A3B689A4202D33C
:1039F0000323FB7724E0FB68DB8F9BB2002BBBD15A
:103A0000BA693968F86800F0FCF80346002B02D068
:103A1000FB6820221A66FB689B68002B0AD10023F2
:103A20007B61FB681B68DB687B61FB681B689B68CC
:103A30007B617B69FB681B6E002B01D00123FB7748
:103A4000FB68012283F85D20FB68002283F85C207C
:103A5000FB7F18462037BD4680BD80B584B000AFDF
:103A6000F860B9607A603B604DE03B68B3F1FF3FBE
:103A700049D03B68002B07D0FDF7B4FA0246BB697A
:103A8000D21A3B689A423ED3FB681B68FA681268F8
:103A9000526822F0E0025A60FB685B68B3F5827FEF
:103AA00011D1FB689B68B3F5004F04D0FB689B689D
:103AB000B3F5806F07D1FB681B68FA68126812685B
:103AC00022F040021A60FB689B6AB3F5005F10D1D8
:103AD000FB681A68FB681B6819684DF6FF730B409A
:103AE0001360FB681B68FA681268126842F400529F
:103AF0001A60FB68012283F85D20FB68002283F8CE
:103B00005C20032308E0FB681B689A68BB681A40C6
:103B10007B689A42A9D1002318461037BD4680BD64
:103B200080B586B000AFF860B9607A603B605BE05A
:103B3000BB68B3F5C06F09D17B68002B06D1FB6869
:103B40001B680C331B78DBB2FB75FB7D3B68B3F164
:103B5000FF3F49D03B68002B07D0FDF743FA0246F0
:103B60003B6AD21A3B689A423ED3FB681B68FA68EC
:103B70001268526822F0E0025A60FB685B68B3F595
:103B8000827F11D1FB689B68B3F5004F04D0FB68BE
:103B90009B68B3F5806F07D1FB681B68FA681268F1
:103BA000126822F040021A60FB689B6AB3F5005F5E
:103BB00010D1FB681A68FB681B6819684DF6FF7323
:103BC0000B401360FB681B68FA681268126842F4C5
:103BD00000521A60FB68012283F85D20FB68002216
:103BE00083F85C20032308E0FB681B689A68BB68C5
:103BF0001A407B689A429BD1002318461837BD466D
:103C000080BD80B586B002AFF860B9607A607B682D
:103C10000093BB6800224FF4C051F868FFF780FFA3
:103C20000346002B07D0FB681B6E43F02002FB68A5
:103C30001A66032327E07B680093BB68002280217B
:103C4000F868FFF70AFF0346002B07D0FB681B6EDE
:103C500043F02002FB681A66032314E07B6800939C
:103C6000BB6800224FF4C061F868FFF759FF0346B4
:103C7000002B07D0FB681B6E43F02002FB681A661E
:103C8000032300E0002318461037BD4680BD80B5F1
:103C900082B000AF78607B68002B01D101231DE06A
:103CA0007B6893F83D30DBB2002B06D17B680022A5
:103CB00083F83C20786800F015F87B68022283F8CE
:103CC0003D207B681A687B6804331946104600F073
:103CD00075F97B68012283F83D20002318460837D8
:103CE000BD4680BD80B483B000AF786000BF0C37A4
:103CF000BD465DF8047B704780B483B000AF786048
:103D00007B681B687A681268D26842F00102DA6048
:103D10007B681B687A681268126842F001021A60B8
:103D2000002318460C37BD465DF8047B704780B50C
:103D300082B000AF78607B681B681B6903F00203E8
:103D4000022B22D17B681B68DB6803F00203022B85
:103D50001BD17B681B686FF002021A617B6801222D
:103D60001A777B681B689B6903F00303002B03D061
:103D7000786800F005F905E0786800F0F7F87868F1
:103D800000F008F97B6800221A777B681B681B69C2
:103D900003F00403042B22D17B681B68DB6803F06B
:103DA0000403042B1BD17B681B686FF004021A61AB
:103DB0007B6802221A777B681B689B6903F4407357
:103DC000002B03D0786800F0DBF805E0786800F09D
:103DD000CDF8786800F0DEF87B6800221A777B68FF
:103DE0001B681B6903F00803082B22D17B681B6842
:103DF000DB6803F00803082B1BD17B681B686FF09E
:103E000008021A617B6804221A777B681B68DB69E9
:103E100003F00303002B03D0786800F0B1F805E04D
:103E2000786800F0A3F8786800F0B4F87B680022A6
:103E30001A777B681B681B6903F01003102B22D1D3
:103E40007B681B68DB6803F01003102B1BD17B68B9
:103E50001B686FF010021A617B6808221A777B6872
:103E60001B68DB6903F44073002B03D0786800F013
:103E700087F805E0786800F079F8786800F08AF84B
:103E80007B6800221A777B681B681B6903F00103BB
:103E9000012B0ED17B681B68DB6803F00103012B4B
:103EA00007D17B681B686FF001021A61786810F017
:103EB0008BF87B681B681B6903F08003802B0ED195
:103EC0007B681B68DB6803F08003802B07D17B686D
:103ED0001B686FF080021A61786800F029F97B682E
:103EE0001B681B6903F48073B3F5807F0ED17B6878
:103EF0001B68DB6803F08003802B07D17B681B689D
:103F00006FF080021A61786800F012F97B681B6814
:103F10001B6903F04003402B0ED17B681B68DB68F4
:103F200003F04003402B07D17B681B686FF0400211
:103F30001A61786800F038F87B681B681B6903F029
:103F40002003202B0ED17B681B68DB6803F0200365
:103F5000202B07D17B681B686FF020021A617868FC
:103F600000F0DCF800BF0837BD4680BD80B483B0E8
:103F700000AF786000BF0C37BD465DF8047B70472A
:103F800080B483B000AF786000BF0C37BD465DF8E9
:103F9000047B704780B483B000AF786000BF0C37FB
:103FA000BD465DF8047B704780B483B000AF786095
:103FB00000BF0C37BD465DF8047B704780B485B008
:103FC00000AF786039600023FB607B681B68FB6092
:103FD0007B68474A934213D07B68B3F1804F0FD080
:103FE0007B68444A93420BD07B68434A934207D094
:103FF0007B68424A934203D07B68414A934201D195
:10400000012300E00023002B08D0FB6823F070039D
:10401000FB603B685B68FA681343FB607B68344A6B
:1040200093422BD07B68B3F1804F27D07B68314A15
:10403000934223D07B68304A93421FD07B682F4A3B
:1040400093421BD07B682E4A934217D07B682D4A3F
:10405000934213D07B682C4A93420FD07B682B4A43
:1040600093420BD07B682A4A934207D07B68294A47
:10407000934203D07B68284A934201D1012300E098
:104080000023002B08D0FB6823F44073FB603B68DF
:10409000DB68FA681343FB60FB6823F080023B682F
:1040A0005B691343FB607B68FA681A603B689A6837
:1040B0007B68DA623B681A687B689A627B680C4AA4
:1040C000934203D07B680E4A934201D1012300E062
:1040D0000023002B03D03B681A697B681A637B6856
:1040E00001225A6100BF1437BD465DF8047B70475A
:1040F000000001400004004000080040000C0040A7
:1041000000040140004001400044014000480140DB
:1041100000180040001C00400020004080B483B024
:1041200000AF786000BF0C37BD465DF8047B704778
:1041300080B483B000AF786000BF0C37BD465DF837
:10414000047B704780B485B000AF0346FB8000233A
:10415000FB60B7F90630842B05D0B7F90620FB6861
:1041600013440333FB60FB6818461437BD465DF803
:10417000047B704780B483B000AFEFF305837B60AE
:104180007B68002B14BF01230023DBB218460C37D9
:10419000BD465DF8047B704780B500AF01F086FF37
:1041A0000023184680BD80B500AFFFF7E3FF03464C
:1041B000002B03D002F080F8034602E002F06CF816
:1041C0000346184680BDF0B587B002AF786039600D
:1041D0007B685C687B681D687B681B699EB27B6836
:1041E000B3F908301846FFF7ADFF024607F10C039C
:1041F000019300923B6832462946204601F064FD57
:104200000346012B01D0002300E0FB681846143759
:10421000BD46F0BD80B582B000AF7860786801F02F
:104220007FFE002318460837BD4680BD80B584B0A8
:1042300000AF78607B68FB60FB68002B01D0FB68F7
:1042400000E00123184601F0FBFE0023184610375A
:10425000BD4680BD80B485B000AFF8600B467A6083
:10426000FB72002318461437BD465DF8047B704787
:1042700080B582B000AF7860012000F0ADFF03464A
:1042800018460837BD4680BD80B584B000AF786061
:1042900039600023BB607B68002B01D180233CE0A8
:1042A0000023FB603B68B3F1FF3F03D14FF0FF33C6
:1042B000FB6009E03B68002B06D03B68FB60FB68B5
:1042C000002B01D10123FB60FFF754FF0346002BB5
:1042D00017D007F108031A460021786801F0DCFACC
:1042E0000346012B01D0FF2317E0BB68002B13D03E
:1042F0000C4B4FF080521A60BFF34F8FBFF36F8F9C
:104300000AE00023FA680021786801F0ADF903465D
:10431000012B01D0FF2300E0002318461037BD46D3
:1043200080BD00BF04ED00E080B584B000AF7860D0
:104330000023FB600023BB60FFF71CFF0346002B3C
:1043400016D007F108031946786801F0FBF8034618
:10435000012B01D0FF2317E0BB68002B13D00C4BBF
:104360004FF080521A60BFF34F8FBFF36F8F0AE098
:10437000002300220021786800F046FF0346012B4D
:1043800001D0FF23FB60FB6818461037BD4680BD97
:1043900004ED00E080B584B000AF786039603B6820
:1043A000012B10D103220021012000F0A1FEF860B2
:1043B000FB68002B05D0002300220021F86800F0E4
:1043C00023FFFB6800E0002318461037BD4680BD80
:1043D00080B584B000AF786039600023BB607B6833
:1043E000002B01D180233CE00023FB603B68B3F14C
:1043F000FF3F03D14FF0FF33FB6009E03B68002B28
:1044000006D03B68FB60FB68002B01D10123FB60F9
:10441000FFF7B0FE0346002B17D007F108031A463A
:104420000021786801F038FA0346012B01D0FF2300
:1044300017E0BB68002B13D00C4B4FF080521A6072
:10444000BFF34F8FBFF36F8F0AE00023FA6800219C
:10445000786801F009F90346012B01D0FF2300E041
:10446000002318461037BD4680BD00BF04ED00E0B4
:1044700080B584B000AF78600023FB600023BB6090
:10448000FFF778FE0346002B16D007F10803194604
:10449000786801F057F80346012B01D0FF2317E09D
:1044A000BB68002B13D00C4B4FF080521A60BFF347
:1044B0004F8FBFF36F8F0AE000230022002178683E
:1044C00000F0A2FE0346012B01D0FF23FB60FB6836
:1044D00018461037BD4680BD04ED00E080B582B0BF
:1044E00000AF7860FFF746FE0346002B01D0822321
:1044F00003E0786801F08FFA002318460837BD46BC
:1045000080BD80B582B000AF786039607B68186884
:104510007B685B680022194600F0EAFD03461846F6
:104520000837BD4680BD000080B586B000AFF8609A
:10453000B9607A6000233B617B687B617B69002BFB
:1045400001D101237B61FFF715FE0346002B18D034
:1045500007F1100207F108010023F86800F056FF88
:104560000346012B01D0FF2318E03B69002B14D038
:104570000C4B4FF080521A60BFF34F8FBFF36F8F19
:104580000BE007F1080100237A69F86800F03CFEAF
:104590000346012B01D0FF2300E000231846183703
:1045A000BD4680BD04ED00E090B58BB000AFF86073
:1045B000B9607A60BB68FB610023BB61BB68002BFC
:1045C0000AD180237B61FB681C4607F1140393E842
:1045D000070084E8070054E000233B6200237B626D
:1045E0007B68B3F1FF3F03D14FF0FF337B6209E0FB
:1045F0007B68002B06D07B687B627B6A002B01D135
:1046000001237B62FFF7B6FD0346002B1CD007F1A8
:10461000200207F1140304331946B86801F03CF98D
:104620000346012B02D110237B6101E000237B6153
:104630003B6A002B1DD0154B4FF080521A60BFF320
:104640004F8FBFF36F8F14E007F11403191D002380
:104650007A6AB86801F008F80346012B02D11023EA
:104660007B6106E07B6A002B01D1002300E0402340
:104670007B61FB681C4607F1140393E8070084E89C
:104680000700F8682C37BD4690BD00BF04ED00E080
:1046900080B500AF02F024F90346012B01D000F0F1
:1046A00053FA00BF80BD80B582B000AF7860FFF7DD
:1046B00061FD0346002B04D0786801F08FF90346B2
:1046C00003E0786801F06BF9034618460837BD46E9
:1046D00080BD80B582B000AF7860FFF74BFD034628
:1046E000002B01D0822303E0786801F094F90023C5
:1046F00018460837BD4680BD80B483B000AF7860EF
:104700007B6803F108027B685A607B684FF0FF32D8
:104710009A607B6803F108027B68DA607B6803F1CA
:1047200008027B681A617B6800221A6000BF0C37A0
:10473000BD465DF8047B704780B483B000AF7860FD
:104740007B6800221A6100BF0C37BD465DF8047B10
:10475000704780B485B000AF786039607B685B6873
:10476000FB603B68FA685A60FB689A683B689A602D
:10477000FB689B683A685A60FB683A689A603B68D5
:104780007A681A617B681B685A1C7B681A6000BFD4
:104790001437BD465DF8047B704780B485B000AF28
:1047A000786039603B681B68BB60BB68B3F1FF3F52
:1047B00003D17B681B69FB600CE07B680833FB60FE
:1047C00002E0FB685B68FB60FB685B681A68BB68BB
:1047D0009A42F6D9FB685A683B685A603B685B6846
:1047E0003A689A603B68FA689A60FB683A685A606F
:1047F0003B687A681A617B681B685A1C7B681A6080
:1048000000BF1437BD465DF8047B704780B485B0A7
:1048100000AF78607B681B69FB607B685B687A68C7
:1048200092689A607B689B687A6852685A60FB68F5
:104830005A687B689A4203D17B689A68FB685A6021
:104840007B6800221A61FB681B685A1EFB681A60AD
:10485000FB681B6818461437BD465DF8047B70473B
:1048600080B485B000AFF860B9607A60FB68043B43
:10487000FB60FB684FF080721A60FB68043BFB60D2
:10488000BB6823F00102FB681A60FB68043BFB6015
:104890000C4AFB681A60FB68143BFB607A68FB6893
:1048A0001A60FB68043BFB60FB686FF002021A6051
:1048B000FB68203BFB60FB6818461437BD465DF87B
:1048C000047B7047C948000880B483B000AF0E4B2A
:1048D0001B68B3F1FF3F0BD04FF0500372B683F368
:1048E0001188BFF36F8FBFF34F8F62B67B60FEE717
:1048F0004FF0500372B683F31188BFF36F8FBFF38D
:104900004F8F62B63B60FEE704000020000000000D
:10491000074B19680868B0E8F04F80F30988BFF3C7
:104920006F8F4FF0000080F311887047AFF3008065
:10493000E43D002000BF00BF06480068006880F327
:10494000088862B661B6BFF34F8FBFF36F8F00DF89
:1049500000BF00BF08ED00E080B584B000AF2C4B75
:10496000FB60FB681B78DBB2BB60FB68FF221A7040
:10497000FB681B78DBB2FB71FB79DBB203F0500301
:10498000DAB2244B1A70244B07221A6009E0224B3A
:104990001B68013B204A1360FB79DBB25B00DBB292
:1049A000FB71FB79DBB203F08003802BEFD01A4B55
:1049B0001B681B02184A1360174B1B6803F4E06363
:1049C000154A1360BB68DAB2FB681A70134A134BBE
:1049D0001B6843F470031360104A104B1B6843F0CC
:1049E0007043136000F0D2F80D4B00221A6000F003
:1049F000E9F80C4A0B4B1B6843F040431360FFF788
:104A00009BFFFFF761FF002318461037BD4680BDAE
:104A100000E400E0C4010020C801002020ED00E017
:104A20000400002034EF00E080B483B000AF4FF00A
:104A3000500372B683F31188BFF36F8FBFF34F8FAC
:104A400062B67B600F4B1B6801330E4A13600D4B3F
:104A50001B68012B10D10C4B1B68DBB2002B0BD059
:104A60004FF0500372B683F31188BFF36F8FBFF31B
:104A70004F8F62B63B60FEE700BF0C37BD465DF866
:104A8000047B70470400002004ED00E080B483B094
:104A900000AF124B1B68002B0BD14FF0500372B6C6
:104AA00083F31188BFF36F8FBFF34F8F62B67B60C4
:104AB000FEE70A4B1B68013B084A1360074B1B6863
:104AC000002B04D100233B603B6883F3118800BFB7
:104AD0000C37BD465DF8047B704700BF0400002022
:104AE000EFF30980BFF36F8F154B1A681EF0100F9C
:104AF00008BF20ED108A20E9F04F10604DF8043D0A
:104B00004FF0500072B680F31188BFF34F8FBFF3A0
:104B10006F8F62B601F0A0FC4FF0000080F31188A7
:104B200008BC19680868B0E8F04F1EF0100F08BF05
:104B3000B0EC108A80F30988BFF36F8F704700BF15
:104B4000E43D002000BF00BF80B582B000AF4FF051
:104B5000500372B683F31188BFF36F8FBFF34F8F8B
:104B600062B67B6001F0BAFB0346002B03D0064B14
:104B70004FF080521A6000233B603B6883F311883A
:104B800000BF0837BD4680BD04ED00E080B400AF33
:104B9000084A094B1B680949A1FB03139B09013B08
:104BA0001360074B07221A6000BFBD465DF8047B07
:104BB000704700BF14E000E018010020D34D6210E0
:104BC00010E000E0DFF80C00016841F470010160C2
:104BD000704700BF88ED00E080B485B000AFEFF310
:104BE0000583FB60FB680F2B15D9184AFB6813443B
:104BF0001B78FB72164B1B78FA7A9A420BD24FF055
:104C0000500372B683F31188BFF36F8FBFF34F8FDA
:104C100062B67B60FEE70F4B1B6803F4E0620E4B4D
:104C20001B689A420BD94FF0500372B683F3118878
:104C3000BFF36F8FBFF34F8F62B63B60FEE700BFDD
:104C40001437BD465DF8047B704700BFF0E300E019
:104C5000C40100200CED00E0C801002080B58AB03E
:104C600000AF78600023FB6101F06AFA5A4B1B68C1
:104C7000002B01D100F016F9584B1A687B681340DD
:104C8000002B40F090807B68002B1ED008227B68B0
:104C900013447B607B6803F00703002B15D07B680F
:104CA00023F0070308337B607B6803F00703002BC6
:104CB0000BD04FF0500372B683F31188BFF36F8FA0
:104CC000BFF34F8F62B67B61FEE77B68002B6AD033
:104CD000434B1B687A689A4265D8424B3B62414B12
:104CE0001B687B6204E07B6A3B627B6A1B687B62B9
:104CF0007B6A5A687B689A4203D27B6A1B68002BE6
:104D0000F1D1354B1B687A6A9A424CD03B6A1B68DA
:104D100008221344FB617B6A1A683B6A1A607B6A4B
:104D20005A687B68D21A08235B009A4220D97A6AB3
:104D30007B681344BB61BB6903F00703002B0BD0F6
:104D40004FF0500372B683F31188BFF36F8FBFF338
:104D50004F8F62B63B61FEE77B6A5A687B68D21A66
:104D6000BB695A607B6A7A685A60B86900F0FCF8DF
:104D70001B4B1A687B6A5B68D31A194A1360184B7D
:104D80001A68194B1B689A4203D2154B1B68164AC6
:104D900013607B6A5A68114B1B681A437B6A5A601E
:104DA0007B6A00221A6001F0D9F9FB6903F007035E
:104DB000002B0BD04FF0500372B683F31188BFF372
:104DC0006F8FBFF34F8F62B6FB60FEE7FB6918463B
:104DD0002837BD4680BD00BFD43D0020E03D002007
:104DE000D83D0020CC3D0020DC3D002080B586B0C1
:104DF00000AF78607B687B617B68002B4AD008231A
:104E00005B427A6913447B617B693B613B695A6809
:104E1000224B1B681340002B0BD14FF0500372B68E
:104E200083F31188BFF36F8FBFF34F8F62B6FB60C0
:104E3000FEE73B691B68002B0BD04FF0500372B6A6
:104E400083F31188BFF36F8FBFF34F8F62B6BB60E0
:104E5000FEE73B695A68114B1B681340002B19D0C1
:104E60003B691B68002B15D13B695A680B4B1B68CB
:104E7000DB431A403B695A6001F062F93B695A68AA
:104E8000074B1B681344064A1360386900F06CF83E
:104E900001F064F900BF1837BD4680BDE03D002039
:104EA000D83D002080B485B000AF4FF47053BB6094
:104EB000274BFB60FB6803F00703002B0CD0FB685B
:104EC0000733FB60FB6823F00703FB60BA68FB68ED
:104ED000D31A1F4A1344BB60FB687B601D4A7B6882
:104EE00013601C4B00225A607A68BB681344FB6055
:104EF0000822FB689B1AFB60FB6823F00703FB603A
:104F0000FB68154A1360144B1B6800225A60124B51
:104F10001B6800221A607B683B603B68FA68D21A03
:104F20003B685A600C4B1A683B681A603B685B68C8
:104F30000A4A13603B685B68094A1360094B4FF0EB
:104F400000421A6000BF1437BD465DF8047B70470D
:104F5000CC010020CC3D0020D43D0020DC3D0020D1
:104F6000D83D0020E03D002080B485B000AF7860DF
:104F7000284BFB6002E0FB681B68FB60FB681A685B
:104F80007B689A42F7D3FB68BB60FB685B68BA68D2
:104F90001A447B689A4208D1FB685A687B685B6850
:104FA0001A44FB685A60FB687B607B68BB607B6867
:104FB0005B68BA681A44FB681B689A4218D1FB68A0
:104FC0001A68154B1B689A420DD07B685A68FB68BB
:104FD0001B685B681A447B685A60FB681B681A6828
:104FE0007B681A6008E00C4B1A687B681A6003E063
:104FF000FB681A687B681A60FA687B689A4202D07C
:10500000FB687A681A6000BF1437BD465DF8047B00
:10501000704700BFCC3D0020D43D002080B584B057
:1050200000AF786039607B68FB60FB68002B0BD1B8
:105030004FF0500372B683F31188BFF36F8FBFF345
:105040004F8F62B6BB60FEE7FFF7EEFCFB681A68A5
:10505000FB68DB6BF968096C01FB03F31A44FB681E
:105060005A60FB6800229A63FB681A68FB689A60C2
:10507000FB681A68FB68DB6B013BF968096C01FB94
:1050800003F31A44FB68DA60FB68FF2283F84420CC
:10509000FB68FF2283F845203B68002B14D1FB6896
:1050A0001B69002B1AD0FB681033184601F056FA22
:1050B0000346002B12D00D4B4FF080521A60BFF305
:1050C0004F8FBFF36F8F09E0FB6810331846FFF76F
:1050D00013FBFB6824331846FFF70EFBFFF7D6FCE3
:1050E000012318461037BD4680BD00BF04ED00E027
:1050F00080B58AB002AFF860B9601346FB71FB68F7
:10510000002B0BD14FF0500372B683F31188BFF31D
:105110006F8FBFF34F8F62B63B61FEE7BB68002B1A
:1051200002D10023FB6104E0FB68BA6802FB03F3D1
:10513000FB61FB6948331846FFF790FDB861BB6916
:10514000002B0BD0BB6948337B61FA79BB690093B4
:1051500013467A69B968F86800F005F8BB69184623
:105160002037BD4680BD80B584B000AFF860B9601F
:105170007A60FB70BB68002B03D1BB69BA691A6007
:1051800002E0BB697A681A60BB69FA68DA63BB69D6
:10519000BA681A640121B869FFF740FF00BF1037F1
:1051A000BD4680BD80B582B000AF78607B68002BC3
:1051B0000ED07B6800225A607B6800221A607B68F0
:1051C0000022DA60002300220021786800F01CF839
:1051D00000BF0837BD4680BD80B586B000AF03462E
:1051E000FB7101237B6100233B61FB791A4639691E
:1051F0007869FFF77DFFF860F868FFF7D3FFFB6879
:1052000018461837BD4680BD80B58EB000AFF86037
:10521000B9607A603B6000237B63FB683B633B6B58
:10522000002B0BD14FF0500372B683F31188BFF3FC
:105230006F8FBFF34F8F62B6BB62FEE7BB68002B78
:1052400003D13B6B1B6C002B01D1012300E0002339
:10525000002B0BD14FF0500372B683F31188BFF3CC
:105260006F8FBFF34F8F62B67B62FEE73B68022B06
:1052700003D13B6BDB6B012B01D1012300E0002349
:10528000002B0BD14FF0500372B683F31188BFF39C
:105290006F8FBFF34F8F62B63B62FEE701F020FBDA
:1052A0000346002B02D17B68002B01D1012300E0D3
:1052B0000023002B0BD14FF0500372B683F31188FB
:1052C000BFF36F8FBFF34F8F62B6FB61FEE7FFF74F
:1052D000ABFB3B6B9A6B3B6BDB6B9A4202D33B683D
:1052E000022B29D13A68B968386B00F0B3FBF86239
:1052F0003B6B5B6A002B10D03B6B2433184601F0EC
:105300002DF90346002B13D03F4B4FF080521A600B
:10531000BFF34F8FBFF36F8F0AE0FB6A002B07D0FC
:10532000394B4FF080521A60BFF34F8FBFF36F8F2E
:10533000FFF7ACFB012363E07B68002B03D1FFF791
:10534000A5FB00235CE07B6B002B06D107F1140367
:10535000184601F067F901237B63FFF797FB00F024
:10536000EFFEFFF761FB3B6B93F844305BB2B3F1A8
:10537000FF3F03D13B6B002283F844203B6B93F843
:1053800045305BB2B3F1FF3F03D13B6B002283F8A2
:105390004520FFF77BFB3A1D07F114031146184621
:1053A00001F066F90346002B24D1386B00F04AFC6B
:1053B0000346002B18D03B6B10337A681146184611
:1053C00001F0A6F8386B00F0D5FB00F0C7FE0346ED
:1053D000002B7FF47CAF0C4B4FF080521A60BFF370
:1053E0004F8FBFF36F8F72E7386B00F0C3FB00F095
:1053F000B5FE6CE7386B00F0BDFB00F0AFFE00239C
:1054000018463837BD4680BD04ED00E080B58EB04B
:1054100000AFF860B9607A603B60FB683B633B6B50
:10542000002B0BD14FF0500372B683F31188BFF3FA
:105430006F8FBFF34F8F62B67B62FEE7BB68002BB6
:1054400003D13B6B1B6C002B01D1012300E0002337
:10545000002B0BD14FF0500372B683F31188BFF3CA
:105460006F8FBFF34F8F62B63B62FEE73B68022B44
:1054700003D13B6BDB6B012B01D1012300E0002347
:10548000002B0BD14FF0500372B683F31188BFF39A
:105490006F8FBFF34F8F62B6FB61FEE7FFF79CFB98
:1054A000EFF311824FF0500372B683F31188BFF30C
:1054B0006F8FBFF34F8F62B6BA617B61BB69FB62CE
:1054C0003B6B9A6B3B6BDB6B9A4202D33B68022BC4
:1054D0002CD13B6B93F8453087F82B303A68B9688C
:1054E000386B00F0B7FA97F92B30B3F1FF3F12D1C8
:1054F0003B6B5B6A002B16D03B6B2433184601F0E4
:105500002DF80346002B0ED07B68002B0BD07B6858
:1055100001221A6007E097F82B300133DBB25AB250
:105520003B6B83F8452001237B6301E000237B6311
:10553000FB6A3B613B6983F311887B6B1846383704
:10554000BD4680BD80B58EB000AF786039607B68A5
:105550003B633B6B002B0BD14FF0500372B683F3D0
:105560001188BFF36F8FBFF34F8F62B63B62FEE7C8
:105570003B6B1B6C002B0BD04FF0500372B683F3C8
:105580001188BFF36F8FBFF34F8F62B6FB61FEE7E9
:105590003B6B1B68002B03D13B6B5B68002B01D17D
:1055A000012300E00023002B0BD14FF0500372B613
:1055B00083F31188BFF36F8FBFF34F8F62B6BB6168
:1055C000FEE7FFF709FBEFF311824FF0500372B6CD
:1055D00083F31188BFF36F8FBFF34F8F62B67A6189
:1055E0003B617B69FB623B6B9B6BBB623B6BDA6B2A
:1055F000BB6A9A422BD93B6B93F8453087F827302A
:10560000BB6A5A1C3B6B9A6397F92730B3F1FF3F93
:1056100012D13B6B5B6A002B16D03B6B24331846D0
:1056200000F09CFF0346002B0ED03B68002B0BD0F4
:105630003B6801221A6007E097F827300133DBB29C
:105640005AB23B6B83F8452001237B6301E00023C2
:105650007B63FB6AFB60FB6883F311887B6B1846F6
:105660003837BD4680BD000080B58EB000AFF86011
:10567000B9607A603B6000237B63FB683B633B6BF4
:10568000002B0BD14FF0500372B683F31188BFF398
:105690006F8FBFF34F8F62B67B62FEE7BB68002B54
:1056A00003D13B6B1B6C002B01D1012300E00023D5
:1056B000002B0BD14FF0500372B683F31188BFF368
:1056C0006F8FBFF34F8F62B63B62FEE701F008F9C0
:1056D0000346002B02D17B68002B01D1012300E09F
:1056E0000023002B0BD14FF0500372B683F31188C7
:1056F000BFF36F8FBFF34F8F62B6FB61FEE7FFF71B
:1057000093F93B6B9B6BFB62FB6A002B46D03B6BB8
:10571000DB68BB62B968386B00F006FA3B68002BA7
:1057200021D1FB6A5A1E3B6B9A633B6B1B68002BB3
:1057300004D101F0F1F902463B6B5A603B6B1B69E7
:10574000002B27D03B6B1033184600F007FF0346B1
:10575000002B1FD04F4B4FF080521A60BFF34F8F7A
:10576000BFF36F8F16E03B6BBA6ADA603B6B5B6A24
:10577000002B0FD03B6B2433184600F0EFFE03469E
:10578000002B07D0434B4FF080521A60BFF34F8F6E
:10579000BFF36F8FFFF77AF9012377E07B68002B67
:1057A00003D1FFF773F9002370E07B6B002B06D168
:1057B00007F11403184600F035FF01237B63FFF760
:1057C00065F900F0BDFCFFF72FF93B6B93F844300F
:1057D0005BB2B3F1FF3F03D13B6B002283F844205F
:1057E0003B6B93F845305BB2B3F1FF3F03D13B6BAA
:1057F000002283F84520FFF749F93A1D07F1140309
:105800001146184600F034FF0346002B31D1386BA7
:1058100000F002FA0346002B25D03B6B1B68002BDF
:1058200008D1FFF701F93B6B5B68184601F076F889
:10583000FFF72CF93B6B24337A681146184600F0C9
:1058400067FE386B00F096F900F088FC0346002BE9
:105850007FF455AF0F4B4FF080521A60BFF34F8F5C
:10586000BFF36F8F4BE7386B00F084F900F076FCE4
:1058700045E7386B00F07EF900F070FC386B00F003
:10588000CBF90346002B3FF43AAF002318463837D4
:10589000BD4680BD04ED00E080B58EB000AFF8607D
:1058A000B9607A60FB683B633B6B002B0BD14FF018
:1058B000500372B683F31188BFF36F8FBFF34F8F1E
:1058C00062B63B62FEE7BB68002B03D13B6B1B6CEF
:1058D000002B01D1012300E00023002B0BD14FF05E
:1058E000500372B683F31188BFF36F8FBFF34F8FEE
:1058F00062B6FB61FEE7FFF76FF9EFF311824FF03D
:10590000500372B683F31188BFF36F8FBFF34F8FCD
:1059100062B6BA617B61BB69FB623B6B9B6BBB622E
:10592000BB6A002B2FD03B6B93F8443087F82730AD
:10593000B968386B00F0F8F8BB6A5A1E3B6B9A6383
:1059400097F92730B3F1FF3F12D13B6B1B69002B56
:1059500016D03B6B1033184600F000FE0346002BB8
:105960000ED07B68002B0BD07B6801221A6007E009
:1059700097F827300133DBB25AB23B6B83F84420EF
:1059800001237B6301E000237B63FB6A3B613B698E
:1059900083F311887B6B18463837BD4680BD80B5D0
:1059A00084B000AF78607B68002B0BD14FF05003C0
:1059B00072B683F31188BFF36F8FBFF34F8F62B658
:1059C000BB60FEE7FFF730F87B689B6BFB60FFF77F
:1059D0005DF8FB6818461037BD4680BD80B485B0C1
:1059E00000AF78607B68002B0BD14FF0500372B68C
:1059F00083F31188BFF36F8FBFF34F8F62B6BB6025
:105A0000FEE77B689B6BFB60FB6818461437BD465E
:105A10005DF8047B704780B584B000AF78607B6828
:105A2000FB60FB68002B0BD14FF0500372B683F381
:105A30001188BFF36F8FBFF34F8F62B6BB60FEE775
:105A4000F86800F017F9F868FFF7D0F900BF1037D1
:105A5000BD4680BD80B586B000AFF860B9607A60A1
:105A600000237B61FB689B6B3B61FB681B6C002B1D
:105A70000DD1FB681B68002B4DD1FB685B68184695
:105A800000F0C2FF7861FB6800225A6043E07B6847
:105A9000002B19D1FB689868FB681B6C1A46B96823
:105AA00010F085F9FB689A68FB681B6C1A44FB6868
:105AB0009A60FB689A68FB685B689A422BD3FB6824
:105AC0001A68FB689A6026E0FB68D868FB681B6C64
:105AD0001A46B96810F06BF9FB68DA68FB681B6C52
