:020000040800F2
:10000000000008200DD3000845CD000847CD0008AA
:1000100049CD00084BCD00084DCD00080000000080
:10002000000000000000000000000000212C00087B
:100030004FCD000800000000C12C000851CD000881
:100040005DD300085DD300085DD300085DD30008D0
:100050005DD300085DD300085DD300085DD30008C0
:100060005DD300085DD300085DD300085DD30008B0
:100070005DD300085DD300085DD300085DD30008A0
:100080005DD300085DD300085DD300085DD3000890
:100090005DD300085DD300085DD300085DD3000880
:1000A0005DD3000855CD00085DD300085DD300087E
:1000B0005DD300085DD300085DD300085DD3000860
:1000C0005DD300085DD300085DD300085DD3000850
:1000D0005DD300085DD300085DD300085DD3000840
:1000E00061CD00085DD300085DD300085DD3000832
:1000F0005DD300085DD300085DD300085DD3000820
:100100005DD300085DD300085DD300085DD300080F
:100110005DD300085DD300085DD300085DD30008FF
:100120005DD300085DD300085DD300085DD30008EF
:100130005DD3000869CD00085DD300085DD30008D9
:100140005DD300085DD300085DD300085DD30008CF
:100150005DD300085DD300085DD300085DD30008BF
:100160005DD300085DD300085DD300085DD30008AF
:100170005DD300085DD300085DD3000800000000D7
:100180005DD300085DD300085DD300085DD300088F
:100190005DD300085DD300085DD300085DD300087F
:1001A0005DD300085DD300085DD300085DD300086F
:1001B0005DD300085DD300085DD300085DD300085F
:1001C0005DD300085DD30008000000005DD3000887
:1001D0005DD300085DD300085DD300085DD300083F
:1001E0005DD300085DD300085DD300085DD300082F
:0801F0005DD300085DD3000897
:1002000010B5054C237833B9044B13B10448AFF350
:1002100000800123237010BDA40100200000000015
:10022000B4F2000808B5034B1BB103490348AFF310
:10023000008008BD00000000A8010020B4F2000802
:1002400001F0FF01102A2BDB10F0070F08D010F887
:10025000013B013A8B422DD010F0070F42B3F6D18B
:10026000F0B441EA012141EA014122F007047FF0A4
:1002700000070023F0E80256083C85EA010586EAFB
:10028000010685FA47F5A3FA87F586FA47F6A5FA37
:1002900087F68EB9EED1F0BC01F0FF0102F0070243
:1002A00032B110F8013B013A83EA010313B1F8D1EE
:1002B0000020704701387047002D06BF35460338CF
:1002C000073815F0010F07D1013015F4807F02BF08
:1002D000013015F4C03F0130F0BC0138704700BF59
:1002E00081F0004102E000BF83F0004330B54FEAE7
:1002F00041044FEA430594EA050F08BF90EA020F54
:100300001FBF54EA000C55EA020C7FEA645C7FEAE6
:10031000655C00F0E2804FEA5454D4EB5555B8BF09
:100320006D420CDD2C4480EA020281EA030382EA7A
:10033000000083EA010180EA020281EA0303362D0C
:1003400088BF30BD11F0004F4FEA01314FF4801CDF
:100350004CEA113102D0404261EB410113F0004FF1
:100360004FEA03334CEA133302D0524263EB4303A8
:1003700094EA050F00F0A780A4F10104D5F1200E46
:100380000DDB02FA0EFC22FA05F2801841F10001A1
:1003900003FA0EF2801843FA05F359410EE0A5F175
:1003A00020050EF1200E012A03FA0EFC28BF4CF0A6
:1003B000020C43FA05F3C01851EBE37101F000455C
:1003C00007D54FF0000EDCF1000C7EEB00006EEB69
:1003D0000101B1F5801F1BD3B1F5001F0CD34908F3
:1003E0005FEA30004FEA3C0C04F101044FEA44524A
:1003F00012F5800F80F09A80BCF1004F08BF5FEAD1
:10040000500C50F1000041EB045141EA050130BDB0
:100410005FEA4C0C404141EB010111F4801FA4F153
:100420000104E9D191F0000F04BF01460020B1FAA8
:1004300081F308BF2033A3F10B03B3F120020CDAE0
:100440000C3208DD02F1140CC2F10C0201FA0CF0BE
:1004500021FA02F10CE002F11402D8BFC2F1200C23
:1004600001FA02F120FA0CFCDCBF41EA0C019040D9
:10047000E41AA2BF01EB0451294330BD6FEA040422
:100480001F3C1CDA0C340EDC04F11404C4F120020D
:1004900020FA04F001FA02F340EA030021FA04F31F
:1004A00045EA030130BDC4F10C04C4F1200220FA76
:1004B00002F001FA04F340EA0300294630BD21FAB4
:1004C00004F0294630BD94F0000F83F4801306BF7A
:1004D00081F480110134013D4EE77FEA645C18BF6E
:1004E0007FEA655C29D094EA050F08BF90EA020F05
:1004F00005D054EA000C04BF1946104630BD91EAFD
:10050000030F1EBF0021002030BD5FEA545C05D1FF
:100510004000494128BF41F0004130BD14F580043E
:100520003CBF01F5801130BD01F0004545F0FE41B2
:1005300041F470014FF0000030BD7FEA645C1ABFE7
:10054000194610467FEA655C1CBF0B46024650EA1E
:10055000013406BF52EA033591EA030F41F400214A
:1005600030BD00BF90F0000F04BF0021704730B5D0
:100570004FF4806404F132044FF000054FF00001A5
:1005800050E700BF90F0000F04BF0021704730B566
:100590004FF4806404F1320410F0004548BF40423B
:1005A0004FF000013EE700BF42004FEAE2014FEA90
:1005B00031014FEA02701FBF12F07F4393F07F4F6B
:1005C00081F06051704792F0000F14BF93F07F4F9D
:1005D000704730B54FF4607401F0004521F00041E0
:1005E00020E700BF50EA010208BF704730B54FF066
:1005F00000050AE050EA010208BF704730B511F06B
:10060000004502D5404261EB41014FF4806404F1A2
:1006100032045FEA915C3FF4DCAE4FF003025FEA24
:10062000DC0C18BF03325FEADC0C18BF033202EBAC
:10063000DC02C2F1200300FA03FC20FA02F001FA06
:1006400003FE40EA0E0021FA02F11444C1E600BFA5
:1006500070B54FF0FF0C4CF4E06C1CEA11541DBF58
:100660001CEA135594EA0C0F95EA0C0F00F0DEF823
:100670002C4481EA030621EA4C5123EA4C5350EA08
:10068000013518BF52EA033541F4801143F4801359
:1006900038D0A0FB02CE4FF00005E1FB02E506F0EA
:1006A0000042E0FB03E54FF00006E1FB03569CF03F
:1006B000000F18BF4EF0010EA4F1FF04B6F5007F45
:1006C00064F5407404D25FEA4E0E6D4146EB0606B7
:1006D00042EAC62141EA55514FEAC52040EA5E5040
:1006E0004FEACE2EB4F1FD0C88BFBCF5E06F1ED8EA
:1006F000BEF1004F08BF5FEA500E50F1000041EB21
:10070000045170BD06F0004646EA010140EA0200CD
:1007100081EA0301B4EB5C04C2BFD4EB0C0541EAEF
:10072000045170BD41F480114FF0000E013C00F304
:10073000AB8014F1360FDEBF002001F0004170BD28
:10074000C4F10004203C35DA0C341BDC04F1140441
:10075000C4F1200500FA05F320FA04F001FA05F2CD
:1007600040EA020001F0004221F0004110EBD3709A
:1007700021FA04F642EB06015EEA430E08BF20EAC6
:10078000D37070BDC4F10C04C4F1200500FA04F369
:1007900020FA05F001FA04F240EA020001F00041FB
:1007A00010EBD37041F100015EEA430E08BF20EA6E
:1007B000D37070BDC4F1200500FA05F24EEA020EB6
:1007C00020FA04F301FA05F243EA020321FA04F0E5
:1007D00001F0004121FA04F220EA020000EBD3709C
:1007E0005EEA430E08BF20EAD37070BD94F0000F9C
:1007F0000FD101F00046400041EB010111F4801FD0
:1008000008BF013CF7D041EA060195F0000F18BF80
:10081000704703F00046520043EB030313F4801FBC
:1008200008BF013DF7D043EA0603704794EA0C0F76
:100830000CEA135518BF95EA0C0F0CD050EA41068C
:1008400018BF52EA4306D1D181EA030101F0004109
:100850004FF0000070BD50EA410606BF1046194631
:1008600052EA430619D094EA0C0F02D150EA01363D
:1008700013D195EA0C0F05D152EA03361CBF10467E
:1008800019460AD181EA030101F0004141F0FE411D
:1008900041F470014FF0000070BD41F0FE4141F4A1
:1008A000780170BD70B54FF0FF0C4CF4E06C1CEAA1
:1008B00011541DBF1CEA135594EA0C0F95EA0C0F56
:1008C00000F0A7F8A4EB050481EA030E52EA033511
:1008D0004FEA013100F088804FEA03334FF0805532
:1008E00045EA131343EA12634FEA022245EA11155F
:1008F00045EA10654FEA00260EF000419D4208BF10
:10090000964244F1FD0404F5407402D25B084FEABC
:100910003202B61A65EB03055B084FEA32024FF468
:1009200080104FF4002CB6EB020E75EB030E22BFC5
:10093000B61A754640EA0C005B084FEA3202B6EB85
:10094000020E75EB030E22BFB61A754640EA5C0034
:100950005B084FEA3202B6EB020E75EB030E22BFC4
:10096000B61A754640EA9C005B084FEA3202B6EBC5
:10097000020E75EB030E22BFB61A754640EADC0084
:1009800055EA060E18D04FEA051545EA16754FEAE6
:1009900006164FEAC30343EA52734FEAC2025FEA04
:1009A0001C1CC0D111F4801F0BD141EA00014FF093
:1009B00000004FF0004CB6E711F4801F04BF014364
:1009C0000020B4F1FD0C88BFBCF5E06F3FF6AFAE80
:1009D000B5EB030C04BFB6EB020C5FEA500C50F110
:1009E000000041EB045170BD0EF0004E4EEA113193
:1009F00014EB5C04C2BFD4EB0C0541EA045170BD9A
:100A000041F480114FF0000E013C90E645EA060EDD
:100A10008DE60CEA135594EA0C0F08BF95EA0C0F0B
:100A20003FF43BAF94EA0C0F0AD150EA01347FF453
:100A300034AF95EA0C0F7FF425AF104619462CE72A
:100A400095EA0C0F06D152EA03353FF4FDAE10468D
:100A5000194622E750EA410618BF52EA43067FF4DE
:100A6000C5AE50EA41047FF40DAF52EA43057FF46E
:100A7000EBAE12E74FF0FF3C06E000BF4FF0010C79
:100A800002E000BF4FF0010C4DF804CD4FEA410CDD
:100A90007FEA6C5C4FEA430C18BF7FEA6C5C1BD0AA
:100AA00001B050EA410C0CBF52EA430C91EA030F2B
:100AB00002BF90EA020F0020704710F1000F91EA88
:100AC000030F58BF994208BF90422CBFD8176FEA56
:100AD000E37040F0010070474FEA410C7FEA6C5C24
:100AE00002D150EA013C07D14FEA430C7FEA6C5C2B
:100AF000D6D152EA033CD3D05DF8040B704700BF57
:100B00008446104662468C461946634600E000BFA4
:100B100001B5FFF7B7FF002848BF10F1000F01BD76
:100B20004DF808EDFFF7F4FF0CBF012000205DF841
:100B300008FB00BF4DF808EDFFF7EAFF34BF0120C6
:100B400000205DF808FB00BF4DF808EDFFF7E0FF5F
:100B500094BF012000205DF808FB00BF4DF808EDB0
:100B6000FFF7CEFF94BF012000205DF808FB00BF17
:100B70004DF808EDFFF7C4FF34BF012000205DF8F9
:100B800008FB00BF4FEA410C7FEA6C5C02D150EADF
:100B9000013C0AD14FEA430C7FEA6C5C02D152EA75
:100BA000033C02D14FF0000070474FF00100704746
:100BB0004A0011D212F5001211D20DD56FF47873DC
:100BC000B3EB62520ED44FEAC12343F0004343EA31
:100BD000505323FA02F070474FF00000704750EA7C
:100BE000013002D14FF0FF3070474FF000007047E6
:100BF0004FEA4102B2F1E04324BFB3F5001CDCF13F
:100C0000FE5C0DD901F0004C4FEAC0024CEA507076
:100C1000B2F1004F40EB830008BF20F001007047A5
:100C200011F0804F21D113F13872BCBF01F00040A8
:100C3000704741F480114FEA5252C2F11802C2F1DA
:100C4000200C10FA0CF320FA02F018BF40F001005B
:100C50004FEAC1234FEAD32303FA0CFC40EA0C000D
:100C600023FA02F34FEA4303CCE77FEA625307D14A
:100C700050EA01331EBF4FF0FE4040F44000704781
:100C800001F0004040F0FE4040F40000704700BF1B
:100C900053B94AB9002908BF00281CBF4FF0FF31E3
:100CA0004FF0FF3000F07AB9ADF1080C6DE904CED9
:100CB00000F006F8DDF804E0DDE9022304B0704737
:100CC0002DE9F0478C460D460446089E002B51D175
:100CD0008A4217466DD9B2FA82FEBEF1000F0BD0E0
:100CE000CEF1200C01FA0EF520FA0CFC02FA0EF7F8
:100CF0004CEA050C00FA0EF44FEA174A250CBCFB2F
:100D0000FAF81FFA87F90AFB18CC45EA0C4508FBEC
:100D100009F3AB420AD9ED1908F1FF3280F02381C3
:100D2000AB4240F22081A8F102083D44ED1AA4B282
:100D3000B5FBFAF00AFB105544EA054400FB09F93B
:100D4000A14509D9E41900F1FF3380F00A81A145DA
:100D500040F2078102383C44A4EB090440EA084011
:100D60000021002E61D024FA0EF400233460736059
:100D7000BDE8F0878B4207D9002E54D0002186E8C9
:100D800021000846BDE8F087B3FA83F1002940F05E
:100D90008E80AB4202D3824200F2FA80841A65EB65
:100DA00003050120AC46002E3FD086E81010BDE8B8
:100DB000F08712B90127B7FBF2F7B7FA87FEBEF149
:100DC000000F34D1EB1B3A0C1FFA87FC0121B3FB57
:100DD000F2F8250C02FB183345EA03450CFB08F337
:100DE000AB4207D9ED1908F1FF3002D2AB4200F255
:100DF000D1808046ED1AA3B2B5FBF2F002FB10558C
:100E000043EA05440CFB00FCA44507D9E41900F1B2
:100E1000FF3302D2A44500F2B8801846A4EB0C04BC
:100E200040EA08409DE731463046BDE8F087CEF104
:100E3000200405FA0EF307FA0EF720FA04F83A0C2C
:100E400025FA04F448EA0308B4FBF2F14FEA184526
:100E500002FB11441FFA87FC45EA044501FB0CF331
:100E6000AB4200FA0EF409D9ED1901F1FF3080F020
:100E70008A80AB4240F2878002393D44EB1A1FFA68
:100E800088F5B3FBF2F002FB103345EA034500FBA3
:100E90000CF3AB4207D9ED1900F1FF386FD2AB422A
:100EA0006DD902383D44EB1A40EA01418FE7C1F1A8
:100EB000200722FA07F88B4005FA01F448EA0303F9
:100EC00020FA07FE4FEA134CFD404EEA040EB5FB34
:100ED000FCF94FEA1E440CFB19551FFA83F844EA4B
:100EE000054509FB08F4AC4202FA01F200FA01FAE6
:100EF00008D9ED1809F1FF3043D2AC4241D9A9F12C
:100F000002091D442D1B1FFA8EFEB5FBFCF00CFBE5
:100F100010554EEA054400FB08F8A04507D9E4182F
:100F200000F1FF3529D2A04527D902381C4440EAF8
:100F30000940A4EB0804A0FB02894C45C6464D4677
:100F400015D312D056B1BAEB0E0364EB050404FAC4
:100F500007F7CB401F43CC40376074600021BDE8E9
:100F6000F0871846F8E69046E0E6C245EAD2B8EBCC
:100F7000020E69EB03050138E4E72846D7E740464F
:100F800091E78146BEE7014678E702383C4445E7F1
:100F9000084608E7A8F102083D442BE7704700BF68
:100FA00008B5032000F0C4F900200BF08FFE0BF011
:100FB00047FE002008BD0000034A044B11681B785F
:100FC0000B441360704700BF9C41002000000020CC
:100FD000014B1868704700BF9C41002038B504469B
:100FE000FFF7F6FF0546631C1EBF044B1B78E41891
:100FF000FFF7EEFF401B8442FAD838BD0000002006
:1010000010B50446002800F09980036C23B94364AE
:1010100080F83C300AF088FA236CDB0600F18C8003
:10102000236C23F4885323F0020343F00203236468
:10103000434B5A6822F440325A605A6861680A4346
:101040005A60236821695A6822F480725A605A688B
:1010500042EA0122A1685A605A6822F040725A603E
:101060005A680A43E1685A609A6822F400629A60FA
:101070009A680A4333499A60A26A8A4250D09968B2
:1010800021F07061996099680A43E16A9A609A68F0
:1010900022F040529A609A680A439A609A68A1695D
:1010A00022F002029A609A6842EA41029A60226A39
:1010B000002A3DD05A68616A42F4006201395A60E0
:1010C0005A6822F460425A605A6842EA41325A60D1
:1010D0000020DA6AE16922F470020139DA62DA6A20
:1010E00042EA0152216BDA629A6822F400729A6035
:1010F0009A6842EA412261699A609A6822F48062A1
:101100009A609A6842EA81229A606064236C23F0B4
:10111000030343F001032364002384F83C3010BD33
:101120009A6822F070629A609A6822F04052B4E79E
:101130005A6822F40062CAE70120EDE7012010BDE1
:10114000002301400100000F03689A6870B556053E
:1011500004460D460BD59B68D80508D5236C0120A5
:1011600043F020032364002384F83C3070BDFFF774
:101170002FFF064623681A6892070CD56FF01202FB
:101180001A60226C42F4007222649A6812F0405F86
:1011900013D0002070BD691CEDD045B9236C03202D
:1011A00043F004032364002384F83C3070BDFFF750
:1011B0000FFF801B8542DDD2F0E7A269002AE8D14B
:1011C000DA6A12F4700F02D09B685B05E1D4236CDD
:1011D00023F480732364206C10F48050D9D1236CE5
:1011E00043F00103236470BD0368D86C70470000AE
:1011F0000023F7B5019390F83C30012B71D00D68B6
:1012000001230468092D80F83C30AEB28A6831D9D8
:1012100006EB46034FF0070EE7681E3B0EFA03FE8F
:1012200027EA0E07E7603D4FBD421ED1E36843EA5F
:101230000263E3604A68062A4FEA82032AD813440D
:10124000676B591F1F238B4006FA01F127EA03033E
:101250006363626B11436163314B9C4239D000235D
:1012600080F83C30184603B0F0BDE76802FA03F39B
:101270003B43DEE705EB45034FF0070E27690EFA07
:1012800003FE02FA03F327EA0E07276127693B43AF
:101290002361CFE70C2A0ED81344216BA3F123025C
:1012A0001F23934006FA02F221EA03032363236B10
:1012B0001A432263D0E713441F22E16A413B9A405C
:1012C00021EA020206FA03F1E262E26A1143E162F4
:1012D000C2E7122D07D1134A536843F480035360C9
:1012E000BDE70220BFE70D4B9D4201D0112DB6D1C5
:1012F0000C499D424A6842F400024A60AFD10A4B51
:101300000A4A1B68B3FBF2F20A2353430193019B81
:10131000002BA4D0019B013BF8E700BF1200001096
:1013200000200140002301401401002040420F0032
:10133000074A0002D36800F4E06023F4E0631B0472
:101340001B0C43F0BF6343F400330343D360704787
:1013500000ED00E0194B30B5DC68C4F30224C4F1A1
:101360000703251D042B28BF0423062D4FF001057C
:101370008CBF033C002405FA03F3002803F1FF337C
:1013800001EA030101FA04F105FA04F404F1FF345F
:1013900002EA040242EA01024FEA021205DA00F010
:1013A0000F00D2B2064B1A5430BD00F16040D2B2E9
:1013B00000F5614080F8002330BD00BF00ED00E083
:1013C00014ED00E04209012300F01F0003FA00F0D1
:1013D000014B43F82200704700E100E00138B0F112
:1013E000807F0AD2064BF021064A5860002082F81E
:1013F0002310072298601A6070470120704700BFD1
:1014000010E000E000ED00E0044B04281A680CBF77
:1014100042F0040222F004021A60704710E000E07B
:10142000002337B541F218040193036805460120F3
:101430001A5942F480121A511B590193FFF7CEFD3D
:101440002B68019A1A5103B030BD000070B50446F4
:1014500029B14FF40063C3604FF480438360E369B4
:101460002268002BE068A368156808BF4FF480610C
:1014700043EA00032E4818BF0021284043F40073BC
:10148000034301200B4313601568FFF7A7FD236892
:10149000402201201D605A605D68FFF79FFD2368B0
:1014A00001205D6000259D60DD609A6922F0BE022A
:1014B0001204120C42F080029A619E69FFF78EFDC1
:1014C000236801209E61DD61DD69FFF787FD2268E9
:1014D0000120184BD56141F2180551590B4043F0DA
:1014E000087343F0040353515659FFF777FD2368FF
:1014F0000120114A5E5103F580531A601D68FFF701
:101500006DFD226802F580531D60A369012B07D190
:1015100041F21C01535843F4803343F040035350CD
:101520006369064A998811601A68054B1A6070BD94
:101530000F8120FF233FDEF88020C102408002405F
:1015400044800240F0B590F84540012C4FF0020471
:1015500033D0012580F844404FF4801701F1200476
:1015600080F8455040F2F45E002503F1FF3CC16273
:101570009D420BD1026841F21003D150012380F843
:101580004430002380F845301846F0BD0EFB052698
:1015900044F8207C44F8186CC6692EB954F8206CC5
:1015A00046F4400644F8206C65452CBF0E4626469E
:1015B0000135203444F8346CDAE72046F0BD2DE9DB
:1015C000F04190F84540012C4FF0020430D0012545
:1015D00080F844404FF0004601F1200480F8455067
:1015E00044F2F457002540F2F45E03F1FF3C8162BF
:1015F0009D420CD1026841F20C03D150012380F8C6
:101600004430002380F845301846BDE8F0810EFBD9
:10161000052844F8206C44F8188C65452CBF884692
:10162000A04644F81C7C013544F8148C2034DFE7D4
:101630002046BDE8F081000090F84530012B4FF0C6
:101640000203F0B566D0012280F8443080F84520CE
:1016500029B980F8442080F845101046F0BDC36ACF
:101660001C68002C06DA122380F84430002380F82E
:101670004530F2E740F2F454A1422CD9B1FBF4F228
:1016800004FB12142CB30132234C01F2F45140F24A
:10169000F456571E04FB02110024C1F30C011D680F
:1016A00025F040551D601CB91D6845F080551D6032
:1016B000A7425E6004D11D68596045F000551D6069
:1016C0001D68013445F0004594421D60DB68E6D199
:1016D0000DE0012AD8D11A68C1F30C0142F0405242
:1016E00059601A601A6842F000421A60DB68C362EF
:1016F00041F2140203689958490705D5042199500D
:10170000002141F204029950012380F84430002363
:1017100080F845301846F0BD0CFAFFFF90F84530D0
:10172000012B4FF0020330B53BD00122052480F895
:101730004430114680F84520836A1A68002A01DB8C
:10174000013C06D10123002280F8443080F8452076
:1017500027E01A68DD6802F44072B2F5007F03D119
:10176000036381638562E7E71A6812F4407F826B46
:1017700002D101328263F5E701324363012A8263B9
:1017800008BF03631B68C3F30D43043BC363036BD0
:101790009B6885620364012380F84430002380F84D
:1017A0004530184630BD7047704770B5026841F249
:1017B00014060446955915F0400521D00AF094F816
:1017C000236840229A51012384F84430002384F88E
:1017D0004530236841F214054FF480325A515B5969
:1017E0001B040CD52046FFF7DFFF23684FF40042AF
:1017F0005A51012384F84430002384F8453070BDE9
:101800009359DA07E5D5FFF7CEFF012322689351FC
:1018100084F8443084F84550DBE7F8B590F844305C
:1018200005461646822B30D002688223890180F853
:101830004430136901F4F86403F01C012143048A65
:10184000E402A4B20C4344F001041461FFF7C0FBAE
:10185000074614F0010007D12B685B699BB2336027
:10186000012385F84430F8BDFFF7B2FBC01BB0F58B
:10187000803F07D30123032085F84430002385F8F7
:101880004530F8BD2B681C69E3E70220F8BD90F8ED
:101890004430422B70B505462ED042238C0192B2C3
:1018A00080F8443004F4F864036844F003041869D1
:1018B00000F01C0020432C8A5A61E402A4B20443C5
:1018C0001C61FFF785FB064614F0010003D10123DC
:1018D00085F8443070BDFFF77BFB801BB0F5803F7F
:1018E00007D30123032085F84430002385F84530D1
:1018F00070BD2B681C69E7E7022070BD0023F7B5B7
:1019000004460093002800F0DC8090F8443003F097
:10191000FF021BB980F8452009F080FF6A4B5A6C22
:1019200042F480425A645B6C03F480430193019B50
:10193000664B5A6822F400025A605A68216A0A43C8
:101940005A60236803F580531A6842F001021A6056
:10195000FFF73EFB0546236803F580521268D00767
:101960001DD41D6900F09CFC594B5A4A25F01C05FA
:101970000344934222D845F0080523684FF40042FF
:10198000002120461D61FFF782FF054668B301254F
:1019900001212046FFF75AFD84F844500BE0FFF781
:1019A00017FB401BB0F5FA7FD5D90325002384F837
:1019B000445084F84530284603B0F0BD464B474AB2
:1019C0000344934202D845F00C05D6E7444B454A00
:1019D00003449342D1D9444B444A0344934294BFB5
:1019E00045F0040545F01005C7E7FF20FFF7F6FABC
:1019F0006368002B53D0FFF7EBFA41F288370646B5
:101A00006A4601212046FFF708FFFFF7E1FA801B35
:101A1000B8420BD901212046FFF718FD0123032509
:101A200084F84430002384F84530C4E7009B59070C
:101A3000E6D54FF4805200212046FFF728FF00280A
:101A4000A5D1FFF7C5FA41F2883706466A4601215B
:101A50002046FFF7E2FEFFF7BBFA801BB842D9D859
:101A6000009B9A06F2D56A4610212046FFF7D5FE64
:101A700000288CD1009B13F0040218BF4FF40062C1
:101A80009B074CBF00234FF48043E260A36000211A
:101A90002046FFF7DBFC012384F844308BE7A36882
:101AA0002946E26820465B0843EAD20292B2FFF779
:101AB000EEFE00287FF46BAF40F6FF70FFF78EFA62
:101AC000E5E7012577E700BF003802400038014014
:101AD00000D3CEFEBFE1E40040F1E9FD3F787D0197
:101AE00000796CFCFF596202001F0AFA7FF0FA02CB
:101AF00090F84530012B73B505464FF0020033D006
:101B000000242B6885F84400012601941A683046A9
:101B100085F8456042F008021A601B680193FFF7E0
:101B20005DFA019A30462B681A6000941A6842F0F8
:101B300004021A601B680093FFF750FA2B682846CE
:101B4000009A1A60FFF76CFC2A6841F218032046DD
:101B5000D15841F40051D150D15841F00201D15037
:101B600085F8446085F8454002B070BD2DE9F04F1E
:101B70000B6885B0DFF8C081019300236C4ADFF861
:101B8000BC914FF0010E019C0EFA03FE0EEA040612
:101B9000B64540F0B3804C6824F01007022F16D1F0
:101BA0004FEAD30A03F0070B4FF00F0C00EB8A0A41
:101BB0004FEA8B0BDAF820500CFA0BFC25EA0C0CE0
:101BC0000D6905FA0BF545EA0C05CAF820504FEAF5
:101BD000430A0325D0F800B004F0030C05FA0AF517
:101BE000013F0CFA0AFCED43012F0BEA050B4CEA0E
:101BF0000B0CC0F800C011D8876807EA050BCF6846
:101C000007FA0AFC4CEA0B078760476827EA0E0EC2
:101C1000C4F300179F4047EA0E074760C7683D407E
:101C20008F6807FA0AF73D43C560E50066D5D8F826
:101C3000445023F0030703F0030E4FF00F0C45F45C
:101C4000804507F180474FEA8E0EC8F8445007F5EB
:101C50009C37D8F8445005F480450395039D0CFA51
:101C60000EF5D7F808A02AEA050C324DA8424CD050
:101C700005F58065A8424AD005F58065A84248D0A0
:101C800005F58065A84246D005F58065A84244D098
:101C9000484544D005F50065A84242D005F5806569
:101CA000A84240D005F58065A8423ED005F5806584
:101CB000A84214BF0A25092505FA0EF514F4803F41
:101CC00045EA0C05BD606FEA060715680CBF3D408C
:101CD000354314F4003F156055680CBF3D40354353
:101CE00014F4801F556095680CBF3D403543A40235
:101CF0009560D56854BF3D403543D5600133102B06
:101D00007FF43FAF05B0BDE8F08F0025D4E7012593
:101D1000D2E70225D0E70325CEE70425CCE7052549
:101D2000CAE70625C8E70725C6E70825C4E700BFB8
:101D3000003C014000000240003802400014024014
:101D40000369194214BF0120002070470AB1816164
:101D500070470904FBE7704708B5044B5969014215
:101D600002D05861FFF7F7FF08BD00BF003C0140FB
:101D7000194B37B51A6C194C42F080521A641B6C1F
:101D800003F080530193019B236843F48033236065
:101D9000FFF71EF905466368DA030CD5236843F4A0
:101DA00000332360FFF714F90C4C054663689B036E
:101DB0000AD5002006E0FFF70BF9401BB0F57A7F4B
:101DC000E9D9032003B030BDFFF702F9401BB0F59D
:101DD0007A7FEBD9F5E700BF003802400070004081
:101DE0002DE9F341044618B9012002B0BDE8F081A5
:101DF0000368D80710D4236899075ED423681907AD
:101E000000F1A38023685A0700F1C480A269002A68
:101E100040F02E810020E8E7934B9A6802F00C0214
:101E2000042A07D09A6802F00C02082A0AD15B68DB
:101E30005A0207D58C4B1B689B03DCD56368002BCB
:101E4000D9D1D1E76368884DB3F5803F11D12B68B4
:101E500043F480332B60FFF7BBF8834D06462B68B5
:101E60009F03C8D4FFF7B4F8801B6428F7D9032078
:101E7000BBE79BB92B6823F480332B602B6823F4DA
:101E800080232B60FFF7A4F806462B689803B2D591
:101E9000FFF79EF8801B6428F7D9E8E7B3F5A02F79
:101EA0002B6803D143F480232B60D0E723F48033E5
:101EB0002B602B6823F48023CCE76B4B9A6812F0DD
:101EC0000C0F07D09A6802F00C02082A11D15B6847
:101ED00059020ED4644B1A68920702D5E268012AAF
:101EE00082D11A68216922F0F80242EAC1021A601E
:101EF00084E7E3685C4DBBB12B6843F001032B60C2
:101F0000FFF766F806462B689F0707D52B682269FE
:101F100023F0F80343EAC2032B606FE7FFF758F89A
:101F2000801B0228EFD9A2E72B6823F001032B6066
:101F3000FFF74EF806462B6898077FF55FAFFFF76F
:101F400047F8801B0228F6D991E76369464D83B1B3
:101F50006B6F43F001036B67FFF73AF806466B6F50
:101F60009B073FF54FAFFFF733F8801B0228F6D9E8
:101F70007DE76B6F23F001036B67FFF729F80646D7
:101F80006B6F9F077FF53EAFFFF722F8801B02289B
:101F9000F6D96CE7344B1A6CD00027D41A6C0126A2
:101FA00042F080521A641B6C03F080530193019B32
:101FB0002E4D2B68D9051BD5A3682B4D012B27D19E
:101FC0002B6F43F001032B6741F28835FFF700F8D0
:101FD000254F80463B6F9B073FD5002E3FF416AF41
:101FE000214A136C23F0805313640FE70026DFE7C8
:101FF0002B6843F480732B60FEF7EAFF07462B68DB
:10200000DA05D9D4FEF7E4FFC01B6428F7D92EE720
:10201000ABB92B6F41F2883823F001032B672B6F8C
:1020200023F004032B67FEF7D3FF07462B6F9807B7
:10203000D3D5FEF7CDFFC01B4045F7D917E7052BD9
:102040002B6F03D143F004032B67B9E723F001039F
:102050002B672B6F23F00403B5E7FEF7B9FFA0EB66
:102060000800A842B6D902E70038024000700040DC
:10207000244DAB6803F00C03082B3FF4B5AE2B687E
:10208000022A23F080732B602FD1FEF7A1FF0646B2
:102090002B68990123D4226AE3691343626A43EAF5
:1020A0008213E26A43EA0263226B43EA0273A26A82
:1020B000144C5208013A43EA02436B602B6843F028
:1020C00080732B60FEF784FF054623689A013FF575
:1020D000A1AEFEF77DFF401B0228F6D9C7E6FEF74A
:1020E00077FF801B0228D3D9C1E6FEF771FF0446B3
:1020F0002B689B017FF58EAEFEF76AFF001B02285E
:10210000F6D9B4E600380240134908B58B6803F0ED
:102110000C03042B03D0082B03D0104808BD104833
:1021200008BD4A684B68496802F03F0213F4800317
:10213000C1F388111ABF0A4800230848A1FB000117
:10214000FEF7A6FD044B5B68C3F3014301335B005C
:10215000B0FBF3F008BD00BF003802400024F400DB
:1021600000127A002DE9F0410D46044610B9012015
:10217000BDE8F081464A136803F00F038B4228D371
:1021800021688F0730D4C80743D4414A136803F04D
:102190000F039D4267D32268510770D4130707D5F8
:1021A0003C4A2169936823F4604343EAC103936086
:1021B000FFF7AAFF374B384A9B68C3F30313D35C7E
:1021C000D840364B186000200AF080FD0020BDE8A2
:1021D000F081136823F00F030B431360136803F0BF
:1021E0000F039942C3D1CBE711F0040F294B03D061
:1021F0009A6842F4E0529A600E0703D59A6842F456
:1022000060429A609A68A06822F0F00202439A60E5
:10221000B9E761681F4B01291A681CD112F4003F0D
:10222000A5D09A6841F288381A4E22F003020A4378
:102230009A60FEF7CDFE0746B368626803F00C03B0
:10224000B3EB820FA1D0FEF7C3FEC01B4045F3D90C
:102250000320BDE8F081022902D112F0007FDFE700
:1022600012F0020FDCE7136823F00F032B43136017
:10227000136803F00F039D427FF479AF8BE70549A4
:10228000E0688B6823F4E05303438B6086E700BF6C
:10229000003C0240003802400E12010814010020E8
:1022A000014B1868704700BF14010020044B054A19
:1022B0009B68C3F34233D35C034A1068D84070472D
:1022C000003802401E120108140100200F23036091
:1022D0000B4B9A6802F0030242609A6802F0F00227
:1022E00082609A6802F4E052C2609B68DB0803F4E3
:1022F000E0530361034B1B6803F00F030B6070474F
:1023000000380240003C024003685A6822F0E002B4
:102310005A604268B2F5827F0AD18268B2F5004FF6
:1023200002D0B2F5806F03D11A6822F040021A6021
:10233000826AB2F5005F09D11A6822F400521204D1
:10234000120C1A601A6842F400521A60012380F8D5
:102350005D30002380F85C300320704770B505467F
:102360000C4616462B68986810F0800000D170BDAE
:10237000621CF8D024B92846BDE87040FFF7C4BFFE
:10238000FEF726FE801B8442ECD8F4E7F7B506463C
:102390000C4615461F463168886820400ED0B4F5BB
:1023A000C06F05D10A7BD2B28DF807209DF80730A7
:1023B0006B1CF1D025B93046FFF7A6FF03B0F0BD86
:1023C000FEF706FEC01B8542E5D8F4E770B513465C
:1023D0000D4616460A464FF4C0510446FFF7D6FF95
:1023E00028B1236E032043F0200323660FE032461A
:1023F00029462046FFF7B2FF0028F2D133462A468D
:102400004FF4C0612046FFF7C1FF0028E9D170BD3D
:1024100070B5044600284ED00023836290F85D30EA
:1024200003F0FF021BB980F85C200AF0D7FB0223FF
:102430002168E26884F85D300B68B2F5E06F23F044
:1024400040030B604FF0000332D91846B2F5706FAD
:1024500018BFA362236B2BB9B2F5E06F8CBF0223C8
:1024600001232363A6686368A56933432669334360
:1024700066693343E6693343266A3343A66A3343C6
:1024800005F400762D0C334305F004050B60636AF8
:102490001A43636B1A432A43024300204A60CB6904
:1024A00023F40063CB610123206684F85D3070BDA6
:1024B0004FF48050CCE7012070BD2DE9F3411E465A
:1024C00090F85C3004460D46012B904600F0978052
:1024D000012380F85C30FEF77BFD074694F85D0031
:1024E000C0B2012840F08980002D60D0B8F1000F03
:1024F0005DD00323A563A4F83C8084F85D300023FD
:1025000023662364A4F83E80A4F84430A4F846303F
:102510002365E364A368B3F5004F236803D11A6809
:1025200042F480421A601A68520603D41A6842F0D4
:1025300040021A60E368B3F5E06F1DD8E38F9BB2E9
:10254000F3B123689A6892074AD5E28F92B2012AC2
:102550003ED935F8022BDA60E38F023B9BB2E3876A
:10256000ECE723689A6890071FD535F8022BDA60EC
:10257000E38F013B9BB2E387E38F9BB2002BF0D14B
:102580003A4631462046FFF721FF002832D1A368A2
:1025900033B901932368DA6801929B680193019B28
:1025A000206E003018BF012001E04EB90320012346
:1025B00084F85D30002384F85C3002B0BDE8F0811F
:1025C000711CD9D0FEF704FDC01B8642D4D8EDE7BC
:1025D0002A7801351A73E38F013B9BB2E387ADE79D
:1025E000002EE3D0731CA9D0FEF7F2FCC01B86427C
:1025F000A4D8DBE720232366C9E70220D7E702201F
:10260000DBE7704703680020DA6842F00102DA6015
:102610001A6842F001021A607047704770477047AD
:10262000704703681A69910710B504460FD5DA6838
:1026300092070CD56FF002021A6101229B690277A2
:10264000990700F08580FFF7E9FF002323772368CF
:102650001A69520710D5DA6850070DD56FF00402D9
:1026600020461A6102229B69227713F4407F75D0BD
:10267000FFF7D4FF0023237723681A6911070FD5CA
:10268000DA6812070CD56FF0080220461A6104229E
:10269000DB6922779B0767D0FFF7C0FF0023237712
:1026A00023681A69D00610D5DA68D1060DD56FF007
:1026B000100220461A610822DB69227713F4407F5A
:1026C00058D0FFF7ABFF0023237723681A69D2079E
:1026D00008D5DA68D00705D56FF0010220461A61E7
:1026E00009F0C0FC23681A69110608D5DA681206D9
:1026F00005D56FF0800220461A6100F0C6F8236805
:102700001A69D00508D5DA68110605D56FF0800280
:1027100020461A6100F0B9F823681A69520608D5F4
:10272000DA68500605D56FF0400220461A61FFF7BF
:1027300077FF23681A69910622D5DA6892061FD5B9
:102740006FF0200220461A61BDE8104000F09CB8EE
:10275000FFF763FF2046FFF762FF76E7FFF75DFFB5
:102760002046FFF75CFF85E7FFF757FF2046FFF79E
:1027700056FF93E7FFF751FF2046FFF750FFA2E710
:1027800010BD0000304A0368904212D0B0F1804F73
:102790000FD0A2F57C4290420BD002F580629042AD
:1027A00007D002F58062904203D002F57842904251
:1027B0001DD14A6823F070031343234A904204D189
:1027C00023F44073CA68134328E0B0F1804FF7D078
:1027D0001E4A9042F4D002F580629042F0D002F599
:1027E00080629042ECD002F578429042E8D0184ADC
:1027F0009042E5D002F580629042E1D002F580621D
:102800009042DDD0A2F598329042D9D002F5806294
:102810009042D5D002F580629042D1D04A6923F02F
:102820008003134303608B68C3620B688362064BAB
:10283000984206D003F58063984202D00123436199
:1028400070470B690363F9E7000001400004004092
:102850000040014010B50446A0B190F83D3003F0AF
:10286000FF021BB980F83C20FFF7CBFE0223206853
:10287000211D84F83D30FFF785FF0123002084F8F7
:102880003D3010BD012010BD7047704708B501F004
:102890007BF9002008BDEFF305830BB101F0C2B94D
:1028A00001F0BAB930B5B0F9084085B0028A0B46DC
:1028B000842C90E8220014BF0334002403A8009461
:1028C0000190284601F022F801280CBF039800204F
:1028D00005B030BD08B501F0E9F8002008BD0028BA
:1028E00008BF012008B501F0B3FA002008BD01209F
:1028F00000F060BD13B500240A460194E8B1EFF37F
:102900000583A3B101AA214600F0F8FE012802D0F8
:10291000FF2002B010BD019B3BB14FF08052084B2D
:102920001A60BFF34F8FBFF36F8F0020F1E7194696
:1029300000F01AFE0128EBD1F7E78020E9E700BF9D
:1029400004ED00E00129084610B50CD10322002156
:1029500000F04EFC044620B100231A46194600F050
:102960006BFC204610BD0024FBE7000013B50024DB
:102970000A460194E8B1EFF30583A3B101AA214609
:1029800000F0BCFE012802D0FF2002B010BD019B68
:102990003BB14FF08052084B1A60BFF34F8FBFF32B
:1029A0006F8F0020F1E7194600F0DEFD0128EBD122
:1029B000F7E78020E9E700BF04ED00E013B500244D
:1029C0000194EFF3058393B101A900F06FFD012895
:1029D00013D1019B13B9002002B010BD4FF08052FB
:1029E000074B1A60BFF34F8FBFF36F8FF3E71A46A1
:1029F000194600F021FC0128EDD0FF20ECE700BFD4
:102A000004ED00E0FFF7DABF002203C800F0F0BBDE
:102A10001FB5002401910394A24208BF0122EFF3E5
:102A20000583ABB1234603AA01A900F0D5FC012818
:102A300002D0FF2004B010BD039B3BB14FF0805289
:102A4000064B1A60BFF34F8FBFF36F8F0020F1E783
:102A500001A900F0F1FB0128EBD1F7E704ED00E05C
:102A6000F0B5002685B00446174608460391029645
:102A700001AD11B98023019316E00096EFF30583B1
:102A8000CBB16A4602A900F039FE01280ABF102323
:102A900001960193009B3BB14FF080520C4B1A60A2
:102AA000BFF34F8FBFF36F8F95E8070084E80700EF
:102AB000204605B0F0BD02A900F056FD012801D165
:102AC0001023D8E7002F0CBF00234023D3E700BF1B
:102AD00004ED00E008B501F00BFB012803D0BDE8D0
:102AE000084000F01FB908BDEFF305830BB100F0FB
:102AF00070BE00F059BE10B5EFF305841CB900F0AC
:102B00008BFE204610BD822010BDFFF7F4BF00F100
:102B100008034FF0FF324360C3600361002382600B
:102B20000360704700230361704743689A684B60F5
:102B30008A609A6851609960036808610133036094
:102B400070470A68531C30B50AD103695A684A6055
:102B500091608B605960036808610133036030BD88
:102B600000F108035C682568AA42EFD32346F9E721
:102B70004168826803698A60826851605968884246
:102B800008BF5A6000220261186801381860704757
:102B90000C4B1B6801330AD04FF0500372B683F31D
:102BA0001188BFF36F8FBFF34F8F62B6FEE74FF010
:102BB000500372B683F31188BFF36F8FBFF34F8F4B
:102BC00062B6FEE70400002006480068006880F353
:102BD000088862B661B6BFF34F8FBFF36F8F00DF17
:102BE00000BF000008ED00E0DFF80C00016841F4D0
:102BF000700101607047000088ED00E04FF08073C5
:102C000021F0010140F8202C44380364034BC163D8
:102C100083636FF002030362704700BF912B0008CB
:102C2000074B19680868B0E8F04F80F30988BFF3D4
:102C30006F8F4FF0000080F311887047AFF3008072
:102C4000E03D00204FF0500372B683F31188BFF3CC
:102C50006F8FBFF34F8F62B60B4A13680133012B9E
:102C600013600FD1094B1B6813F0FF0F0AD04FF010
:102C7000500372B683F31188BFF36F8FBFF34F8F8A
:102C800062B6FEE7704700BF0400002004ED00E0DC
:102C9000094A136853B94FF0500372B683F3118891
:102CA000BFF36F8FBFF34F8F62B6FEE7013B136038
:102CB0000BB983F311887047040000200000000066
:102CC000EFF30980BFF36F8F154B1A681EF0100FDA
:102CD00008BF20ED108A20E9F04F10604DF8043D48
:102CE0004FF0500072B680F31188BFF34F8FBFF3DF
:102CF0006F8F62B601F00CF94FF0000080F311887D
:102D000008BC19680868B0E8F04F1EF0100F08BF43
:102D1000B0EC108A80F30988BFF36F8F704700BF53
:102D2000E03D002008B54FF0500372B683F31188E0
:102D3000BFF36F8FBFF34F8F62B600F07BFF18B108
:102D40004FF08052024B1A60002383F3118808BDB4
:102D500004ED00E0064B4FF47A721B68B3FBF2F30C
:102D6000044A013B13600722034B1A60704700BFFF
:102D70001401002014E000E010E000E0234B13B544
:102D80001A780021D2B20192FF221A701B78204AD1
:102D9000DBB28DF803309DF8033003F0500313705D
:102DA00007221C4B1A609DF80300541E000623D412
:102DB00001B11A601A68120202F4E0621A60019B03
:102DC000124ADBB21370144B1A6842F470021A6094
:102DD0001A6842F070421A60FFF7BCFF00220F4BE6
:102DE0001A60FFF701FF0E4A136843F04043136077
:102DF000FFF7EAFEFFF7CCFE9DF803200121520009
:102E0000D2B28DF803202246CDE700BF00E400E0F7
:102E1000C0010020C401002020ED00E004000020DB
:102E200034EF00E0EFF305830F2B10D9124A9B5CBF
:102E3000124A12789A420AD94FF0500372B683F3BD
:102E40001188BFF36F8FBFF34F8F62B6FEE70C4B55
:102E50000C4A1B68126803F4E06393420AD94FF0EE
:102E6000500372B683F31188BFF36F8FBFF34F8F98
:102E700062B6FEE7704700BFF0E300E0C00100204B
:102E80000CED00E0C40100200F4B10B51A6882421F
:102E900018D35C681919884201BF4168184609199E
:102EA0005960446801198A4207D1084909688A4271
:102EB0001FBF51681268091941609842026018BF2B
:102EC000186010BD1346E1E7D83D0020C80100207E
:102ED0002DE9F041044600F097FE4049404D0B6853
:102EE0000BBB404A5607404E1BBFD01D02F5705326
:102EF0004FF4705320F007001CBF02461B1A00203D
:102F0000134432607060083B23F007031860586078
:102F1000981A0B601360354B50601860344B186082
:102F20004FF000432B602F68274216D1002C42D06F
:102F300004F1080358071CBF23F00703083363B1EB
:102F40002B4A16689046B34207D8274A1568686826
:102F5000834204D809688D4207D100242BE02C68F5
:102F6000002CF7D02A462546F1E72968146811603D
:102F7000C21A102A11D9E81841070AD04FF050039D
:102F800072B683F31188BFF36F8FBFF34F8F62B6B2
:102F9000FEE742606B60FFF777FF6B680834134908
:102FA000F61A1F4308680023C8F8006086426F6065
:102FB0002B6038BF0E6000F0D1FE63070AD04FF0DF
:102FC000500372B683F31188BFF36F8FBFF34F8F37
:102FD00062B6FEE72046BDE8F08100BFC8010020D0
:102FE000CC3D0020CC010020D83D0020D43D002065
:102FF000D03D002010B50446002832D0194A50F8C0
:10300000043C126813420AD14FF0500372B683F3A6
:103010001188BFF36F8FBFF34F8F62B6FEE750F892
:10302000081C51B14FF0500372B683F31188BFF3FF
:103030006F8FBFF34F8F62B6FEE723EA020340F8BB
:10304000043C00F0E1FD084A54F8043CA4F10800F7
:1030500011680B441360FFF717FFBDE8104000F044
:103060007DBE10BDCC3D0020D03D002070B5154682
:10307000026C0446866B42B905689DB9406801F050
:103080008DF865600136A66370BD6DB980680AF081
:103090009AF9A368226C134462689342A36001D337
:1030A0002368A3600020EDE7C0680AF08CF9236C68
:1030B000E2685B4221681A448A42E2603EBF62686D
:1030C0009B18E360022DEDD10EB1013EEAE73046D8
:1030D000D8E7034608461A6C10B462B1D9685C6838
:1030E0001144A142D9605DF8044B24BF1968D9602E
:1030F000D9680AF068B95DF8044B704770B50446AA
:10310000FFF7A0FD94F8455004F124066DB2002DA0
:1031100014DCFF2304F1100684F84530FFF7B8FDF6
:10312000FFF790FD94F844506DB2002D12DCFF23A0
:1031300084F84430BDE87040FFF7AABD636A002BF5
:10314000E7D0304600F03CFF08B100F0CBFF013D76
:103150006DB2DCE72369002BE9D0304600F030FF88
:1031600008B100F0BFFF013D6DB2DEE738B50D4696
:10317000044650B94FF0500372B683F31188BFF381
:103180006F8FBFF34F8F62B6FEE7FFF75BFD206CDA
:10319000E36B22684343A260D1181B1A1344616099
:1031A0000021E360FF23A16384F8443084F84530B4
:1031B00095B9236963B104F1100000F001FF38B143
:1031C0004FF08052094B1A60BFF34F8FBFF36F8FE0
:1031D000FFF75EFD012038BD04F11000FFF797FCFA
:1031E00004F12400FFF793FCF2E700BF04ED00E0D8
:1031F00070B50D46064650B94FF0500372B683F3D2
:103200001188BFF36F8FBFF34F8F62B6FEE748435D
:103210004830FFF75DFE044638B145B92060E663EB
:10322000012125642046FFF7A1FF204670BD00F173
:1032300048030360F3E700002DE9FF478946019248
:103240001F46044650B94FF0500372B683F31188FD
:10325000BFF36F8FBFF34F8F62B6FEE7002940F0D8
:103260008C80036C002B00F088804FF0500372B606
:1032700083F31188BFF36F8FBFF34F8F62B6FEE702
:10328000019E002E00F084804FF0500372B683F34D
:103290001188BFF36F8FBFF34F8F62B6FEE7019DBA
:1032A0001DB9FFF7F5FC002058E016B902A800F0A0
:1032B000CBFEFFF7EDFC00F0A7FCFFF7C3FC94F892
:1032C0004430FF2B01D184F8448094F84530FF2B23
:1032D00001D184F84580FFF7DBFC01A902A800F0CA
:1032E000C3FE002843D1FFF7ADFCA66BE56BFFF7EB
:1032F000CFFCAE4235D1019904F1100000F044FE3C
:103300002046FFF7FBFE00F029FD38B94FF080534F
:10331000CAF80030BFF34F8FBFF36F8F0126FFF75E
:1033200091FCA26BE36B9A4201D3022FB7D13A46CC
:1033300049462046FFF79AFE636A1BB104F1240058
:1033400000F03EFE38B14FF08052194B1A60BFF3C7
:103350004F8FBFF36F8FFFF79BFC012004B0BDE8D8
:10336000F0872046FFF7CAFE00F0F8FCD6E72046BB
:10337000FFF7C4FE00F0F2FC95E7022F02D1E36BE9
:10338000012B0AD100F0B4FE00283FF479AF0026EB
:103390004FF00008DFF818A0C1E74FF0500372B6F5
:1033A00083F31188BFF36F8FBFF34F8F62B6FEE7D1
:1033B00004ED00E010B5024600210120FFF718FFE0
:1033C000044638B1002343601A4603601946C360BF
:1033D000FFF732FF204610BD2DE9F843884691469D
:1033E0001F46044650B94FF0500372B683F311885C
:1033F000BFF36F8FBFF34F8F62B6FEE719BB036C4D
:103400000BB34FF0500372B683F31188BFF36F8F85
:10341000BFF34F8F62B6FEE704F1240000F0D0FD49
:10342000002836D0B9F1000F33D00120C9F80000D0
:1034300086F31188BDE8F88301356DB284F84550F4
:1034400027E00020F4E7022F02D1E36B012B22D109
:10345000FFF7E8FCEFF311864FF0500372B683F3E9
:103460001188BFF36F8FBFF34F8F62B6A26BE36B10
:103470009A4201D3022FE4D194F845503A4641468E
:1034800020466DB2FFF7F2FD6B1CD5D1636A002BAD
:10349000C2D10120CCE74FF0500372B683F31188FC
:1034A000BFF36F8FBFF34F8F62B6FEE770B50D4667
:1034B000044650B94FF0500372B683F31188BFF33E
:1034C0006F8FBFF34F8F62B6FEE7036C53B14FF0BF
:1034D000500372B683F31188BFF36F8FBFF34F8F22
:1034E00062B6FEE7036813B94368002B30D1FFF7DB
:1034F00099FCEFF311864FF0500372B683F31188F5
:10350000BFF36F8FBFF34F8F62B6A26BE36B9A422C
:1035100001D3002014E094F8453001325BB2A2637D
:103520005A1C10D1636A0BB9012009E004F1240090
:1035300000F046FD0028F7D0002DF5D001202860CE
:1035400086F3118870BD01335BB284F84530EBE738
:103550004FF0500372B683F31188BFF36F8FBFF340
:103560004F8F62B6FEE700002DE9FF4788460192C3
:103570009946044650B94FF0500372B683F3118850
:10358000BFF36F8FBFF34F8F62B6FEE7002940F0A5
:10359000A980036C002B00F0A5804FF0500372B699
:1035A00083F31188BFF36F8FBFF34F8F62B6FEE7CF
:1035B000019E002E00F09C804FF0500372B683F302
:1035C0001188BFF36F8FBFF34F8F62B6FEE7636A58
:1035D000E660002B6DD004F124005FE0019D1DB971
:1035E000FFF756FB284667E016B902A800F02CFD4D
:1035F000FFF74EFB00F008FBFFF724FB94F8443084
:10360000FF2B01D184F8447094F84530FF2B01D191
:1036100084F84570FFF73CFB01A902A800F024FDE7
:10362000002852D1FFF70EFBA56BFFF731FB002DF1
:1036300045D1236833B9FFF705FB606800F068FDEA
:10364000FFF726FB019904F1240000F09DFC2046C1
:10365000FFF754FD00F082FB38B94FF08053CAF8F1
:103660000030BFF34F8FBFF36F8F0126FFF7EAFAE9
:10367000A56B002DB2D041462046E668FFF729FD34
:10368000B9F1000FA3D1013D2368A56313B900F080
:10369000D9FD6060236963B104F1100000F090FC73
:1036A00038B14FF08052144B1A60BFF34F8FBFF305
:1036B0006F8FFFF7EDFA012004B0BDE8F0872046D8
:1036C000FFF71CFD00F04AFBCFE72046FFF716FD91
:1036D00000F044FBFFF7B6FAA56BFFF7D9FA002D0F
:1036E000C3D17FE700F004FD00283FF461AF00265E
:1036F0000027DFF804A0B9E704ED00E02DE9F84366
:1037000089469046054650B94FF0500372B683F390
:103710001188BFF36F8FBFF34F8F62B6FEE781BB97
:10372000036C73B34FF0500372B683F31188BFF389
:103730006F8FBFF34F8F62B6FEE795F8446049463E
:103740002846013C76B2FFF7C4FCAC63731C13D16E
:103750002B690BB901200BE005F1100000F030FCE3
:103760000028F7D0B8F1000FF4D00120C8F800000D
:1037700087F31188BDE8F883013676B285F8446096
:10378000E8E7FFF74FFBEFF311874FF0500372B6F6
:1037900083F31188BFF36F8FBFF34F8F62B6AC6BAB
:1037A000002CCAD12046E3E710B5044650B94FF0CB
:1037B000500372B683F31188BFF36F8FBFF34F8F3F
:1037C00062B6FEE7FFF73EFAA46BFFF761FA204608
:1037D00010BD50B94FF0500372B683F31188BFF398
:1037E0006F8FBFF34F8F62B6FEE7806B70470000AC
:1037F0000023084A10B502EBC3014C68844204D18F
:10380000002042F83300486010BD0133082BF2D18C
:1038100010BD00BFA041002010B5044650B94FF0C4
:10382000500372B683F31188BFF36F8FBFF34F8FCE
:1038300062B6FEE7FFF7DCFF2046BDE81040FFF769
:10384000D9BB0000064A13681968064B19B94FF036
:10385000FF321A6070471268D268D2685268F8E77F
:10386000E43D0020703F0020F8B51B4B04461B4E82
:103870000F461D6830680430FFF77AF9334640B9C7
:1038800031680120164EC96A3268884022EA000277
:103890003260621C07D137B1196812480431BDE8A3
:1038A000F840FFF742B92C441A68A542546007D982
:1038B0000D4A10681968BDE8F8400431FFF741B9B6
:1038C0000A4A106819680431FFF73BF9084B1A6877
:1038D000944200D21C60F8BDB83F0020E03D0020BB
:1038E000403F0020903F0020E83D0020E43D0020C4
:1038F000703F00204FF0500372B683F31188BFF37E
:103900006F8FBFF34F8F62B6FEE700002DE9F84FCF
:103910004FEA820A80460F46994650460B9EFFF7B3
:10392000D7FA0546002800F097805420FFF7D0FA18
:103930000446002800F08D80AAF1040A05637B1E6E
:1039400000F1340255440F3725F0070A597802F880
:10395000011B13F8011F09B1BB42F7D10A9D4FF0BB
:10396000000B271D0F2D84F843B03846C4F848B02B
:1039700028BF0F25E5626564C5F11005FFF7D2F891
:1039800004F11800FFF7CEF8C4F84CB024614A46A1
:10399000A56141466462504684F850B0FFF72EF9A5
:1039A000206006B13460FFF74DF9324B324E1A6891
:1039B000DFF8F08001321A603568002D4FD1346095
:1039C0001B68012B1ED108EB05001435FFF79FF88B
:1039D000B5F5A07FF7D1DFF8D090284D4846FFF726
:1039E00096F82846FFF793F82548FFF790F8254802
:1039F000FFF78DF82448FFF78AF8244BC3F80090AE
:103A0000234B1D60234A01252349136808680133AD
:103A10001360E26A05FA02F3034314200B6039468F
:103A200000FB0280FFF781F8FFF732F91B4B1B68A0
:103A300063B13368DA6AE36A9A4207D24FF0805280
:103A4000174B1A60BFF34F8FBFF36F8F2846BDE847
:103A5000F88F2846FFF7CEFA4FF0FF35F6E70F4B09
:103A60001B68002BCED13368DA6AE36A9A42C9D860
:103A70003460C7E72C3F0020E03D0020583F002085
:103A8000783F0020A43F0020903F0020E43D00202C
:103A9000E83D00203C3F0020403F00208C3F0020BC
:103AA00004ED00E0EC3D0020443F002070B50446EA
:103AB0002B4DFFF7C7F804B92C68261D3046FFF7D9
:103AC00057F860B9E06A1421264B41435B5833B97B
:103AD000254901220B68824023EA02030B60A36A96
:103AE0001BB104F11800FFF743F8204A13680133B3
:103AF00013602B689C421DD131461D48FFF715F815
:103B00001C4A136801331360FFF7C2F81A4B1B6895
:103B10002BB32B689C4222D1184B1B68BBB14FF0D2
:103B2000500372B683F31188BFF36F8FBFF34F8FCB
:103B300062B6FEE7124A206B1368013B1360FFF781
:103B400059FA2046FFF756FAFFF77CFEDCE74FF004
:103B500080520C4B1A60BFF34F8FBFF36F8F70BD55
:103B6000E03D0020EC3D0020403F00203C3F002095
:103B7000A43F0020303F00208C3F0020383F002031
:103B80002C3F002004ED00E013B5194B00248022E7
:103B900018490193234600941748FFF7B7FE012800
:103BA00016D14FF0500372B683F31188BFF36F8FB5
:103BB000BFF34F8F62B64FF0FF32104B1A60104BBD
:103BC0001860104B1C6002B0BDE81040FFF7D6B87B
:103BD00001300AD14FF0500372B683F31188BFF35E
:103BE0006F8FBFF34F8F62B6FEE702B010BD00BF0C
:103BF0006C3F00205CF300089D3E0008703F0020F1
:103C00008C3F0020B83F0020024A13680133136044
:103C1000704700BF383F0020014B1868704700BF55
:103C2000B83F002008B5FFF7FDF8014B186808BD44
:103C3000B83F00202DE9F84F3D4B1B68002B55D1B4
:103C40003C4B1C6801341C60CCB93B4B1A681268B1
:103C500052B14FF0500372B683F31188BFF36F8FE8
:103C6000BFF34F8F62B6FEE7344A196810681860D8
:103C70001160334A136801331360FFF7E3FD314DE0
:103C80004FF0000B304F2B689C423ED3DFF8A880EA
:103C9000DFF8C490D8F80020126872BB4FF0FF32F2
:103CA0002A6032E006F1040A5046FEF761FFB16A6D
:103CB00019B106F11800FEF75BFFF06A0122D9F88E
:103CC00000304FF0140E02FA00F119431F4BC9F8EF
:103CD000001051460EFB0030FEF727FF3868F16AEE
:103CE000C26A914228BF4FF0010BD3E7184A4FF048
:103CF000000B13680133136011E0D8F80020D2687C
:103D0000D66871688C42CDD229603A680F4BD16A6F
:103D100014224A439A58022A28BF4FF0010B0D4A39
:103D20001268002A18BF4FF0010B5846BDE8F88F03
:103D3000383F0020B83F0020E43D0020E83D00204F
:103D4000743F0020703F0020E03D0020EC3D00204B
:103D5000343F0020BC3F0020403F00202DE9F843C5
:103D6000324C236853B94FF0500372B683F3118875
:103D7000BFF36F8FBFF34F8F62B6FEE7FEF762FFB0
:103D80002368013B236024682CB10024FEF780FFE8
:103D90002046BDE8F883264B1B68002BF5D0DFF8E2
:103DA000A890244FDFF8A480D9F80030E3B90CB113
:103DB000FFF748FD204D2C6844B1204E0127FFF746
:103DC00039FF00B13760013CF9D12C601B4B1B68F7
:103DD000002BDAD04FF08052194B1A60BFF34F8F8F
:103DE000BFF36F8F0124D1E7D9F80C300125DC68CF
:103DF000261D04F11800FEF7BBFE3046FEF7B8FEA4
:103E0000E26A3968142005FA02F300FB02800B43D2
:103E100031463B60FEF789FE0A4BE26A1B68DB6AAB
:103E20009A42C1D3054B1D60BEE700BF383F00205A
:103E30002C3F0020403F0020343F0020BC3F0020AA
:103E400004ED00E0E03D0020783F0020EC3D002044
:103E500008B540B94FF080520E4B1A60BFF34F8F38
:103E6000BFF36F8F08BD0C4B196851B14FF0500371
:103E700072B683F31188BFF36F8FBFF34F8F62B6B3
:103E8000FEE7FFF7C1FEFFF7EFFCFFF767FF002833
:103E9000E0D008BD04ED00E0383F0020174E08B523
:103EA000174C236863B9174B1B68012BF8D94FF0E7
:103EB0008052154B1A60BFF34F8FBFF36F8FEFE740
:103EC000FFF7A2FE3568FFF749FF002DE9D0FEF7A6
:103ED000B9FEF368DD68281DFEF74AFE0B4A136839
:103EE000013B13602368013B2360FEF7D1FE286B82
:103EF000FFF780F82846FFF77DF8D2E7A43F0020BF
:103F0000303F0020EC3D002004ED00E02C3F00207D
:103F1000184B1A68184B10B512B101221A6010BD67
:103F20001A60164B1B68B3FA83F3DBB214221449F0
:103F3000C3F11F035A438C58881854B94FF05003EB
:103F400072B683F31188BFF36F8FBFF34F8F62B6E2
:103F5000FEE74468083264680A449442446004BF3F
:103F600062684260142202FB03135B68DA68054B47
:103F7000D4E700BF383F0020BC3F0020403F002076
:103F8000EC3D0020E03D002010B50C4650B94FF04C
:103F9000500372B683F31188BFF36F8FBFF34F8F57
:103FA00062B6FEE7054B19681831FEF7CAFD2046D8
:103FB0000121BDE81040FFF757BC00BFE03D0020E5
:103FC00038B5C368DC6854B94FF0500372B683F358
:103FD0001188BFF36F8FBFF34F8F62B6FEE704F116
:103FE00018052846FEF7C4FD114B1B68DBB9251DDB
:103FF0002846FEF7BDFD0F49E26A01230868934099
:10400000034314200B6029460B4B00FB0230FEF7E4
:104010008CFD0A4BE26A1B68DB6A9A4206D90120D2
:10402000074B186038BD29460648F0E7002038BD28
:10403000383F0020403F0020EC3D0020E03D0020C4
:10404000BC3F0020783F002008B508B9FFF752FCBC
:10405000034B1B680360034B1B68436008BD00BF34
:10406000743F0020B83F002038B50D46044650B9D3
:104070004FF0500372B683F31188BFF36F8FBFF315
:104080004F8F62B6FEE751B94FF0500372B683F31B
:104090001188BFF36F8FBFF34F8F62B6FEE7FEF755
:1040A000D1FD0E4B19682B685A1C10D00C4A2068A1
:1040B00012689042626801D091420DD2881A834200
:1040C0000AD95B1A204613442B60FFF7BDFF00247A
:1040D000FEF7DEFD204638BD0124F9E7B83F002099
:1040E000743F00200122014B1A607047BC3F002042
:1040F000054B1B6833B1054B1B68002B0CBF02201E
:1041000000207047012070478C3F0020383F00207E
:104110002DE9F0410446002838D01D4DC36A2A68B5
:10412000D26A934232D28269002A04DB2A68D26AB8
:10413000C2F110028261174E1427626907FB036304
:104140009A4220D104F104084046FEF711FD124ABC
:1041500048B9E06A4743F3592BB9012113688140FC
:1041600023EA010313602B681168D86A0123834096
:10417000E0620B4341461360142303FB0060BDE87B
:10418000F041FEF7D2BC2B68DB6AE362BDE8F08148
:10419000E03D0020EC3D0020403F0020F8B5044603
:1041A00008B90020F8BD244B1B6898420AD04FF094
:1041B000500372B683F31188BFF36F8FBFF34F8F35
:1041C00062B6FEE7836C53B94FF0500372B683F3C7
:1041D0001188BFF36F8FBFF34F8F62B6FEE7C16ADE
:1041E000013B426C83649142DBD0002BD9D1051D89
:1041F000124E2846FEF7BCFC114A50B9E76A14215A
:10420000794373582BB901201368B84023EA00039F
:104210001360636CC3F11001E362A16101241168B2
:1042200004FA03F0084329461060142000FB0360E1
:10423000FEF77BFC2046F8BDE03D0020EC3D002071
:10424000403F0020044B1A681AB119688A6C013289
:104250008A641868704700BFE03D00200A6810B506
:104260000C320C4601F00EFB08B994F9040010BDA5
:104270007FB558B90B4B4FF44A720B490B4809F004
:10428000B5F86FF00F0007B05DF804FB0223019052
:104290008DF80C1001A906488DF80D30FFF7DEFFF0
:1042A000F1E700BFB9F30008EBF3000807F40008DA
:1042B000B555000870B5002386B004460E4600933D
:1042C00051B9414B40F2E7124049414809F08EF89C
:1042D0006FF00F0006B070BD0B6020B93A4B40F292
:1042E000E9123C49F1E7054615F8103B03F0F003ED
:1042F000102B0ED1284607F054F850B904F11400E1
:1043000007F04FF8002814BF6FF00A006FF00E009E
:10431000E0E7284607F045F848B92B4B40F2F51284
:104320002D492B4809F062F86FF00A00D2E794F9A2
:10433000080010F10C0FCDDBE2696946284606F053
:10434000FDFF01303CD0237803F0F003102B009BDD
:104350002AD10194ABB11B8901A920480393FFF72F
:104360007DFF009AB2B9E36A13B101212046984754
:10437000636843B994F90800002808BF6FF00D0086
:10438000A8E70123E8E701212046FFF771FF6FF05E
:104390000E009FE71289E36A13B101212046984776
:1043A000009B0020336095E733B9074B40F23E2273
:1043B0000B49074809F01AF8009B1B681A89EAE7BD
:1043C0006FF0020086E700BFB9F30008BCF40008F4
:1043D00007F40008DAF40008F5F400087554000842
:1043E00014F5000870B50D4686B0114600F0C8FD02
:1043F000044600283FD006A98DF80C5041F8140D52
:104400001E48FFF72BFF002835D063682BB11C4BEB
:1044100089221C491C4808F0E9FF04F110052846D0
:1044200006F0BFFF28B9164B8A221849164808F033
:10443000DDFF04F1140006F0B4FF28B1104B8C220C
:104440001349114808F0D2FF04F10C06304606F07B
:10445000E9FF28B90A4B8F220E490B4808F0C6FF26
:10446000304606F0DCFF284606F048FF21460024CF
:10447000072002F0A9FE204606B070BD014F0008DB
:10448000B9F300084CF4000807F400086DF40008C4
:1044900082F40008A3F4000830B5044687B078B170
:1044A0000223019001A907488DF80D30FFF7D6FED1
:1044B000054610B9204600F0ADFD284607B030BDD6
:1044C0000546FAE7095200087FB550B90B4BFF22A9
:1044D0000B490C4808F08AFF6FF00F0007B05DF839
:1044E00004FB094B0190002908BF19460748ADF8A5
:1044F0001020039101A9FFF7B1FEEFE7B9F300081F
:104500009EF3000807F4000810FD00083953000866
:104510007FB558B9094B4FF4B4720949094808F0FE
:1045200065FF6FF00F0007B05DF804FB06A941F8C6
:10453000140D0548FFF792FEF5E700BFB9F3000838
:104540002FF4000807F4000899530008F7B5044653
:104550000D4651B9234B40F28D122349234808F0F0
:1045600045FF6FF00F0003B0F0BD00270F6020B9CA
:104570001C4B40F28F121E49F0E790F9080010F131
:104580000C0FF0DB04F11406304606F00AFFE0B130
:10459000E26901A9304606F0D1FE01301BD0E36A82
:1045A000019E1BB13A46012120469847019A114BC2
:1045B0009A4213D066B906F071FF94F908300C33B3
:1045C000A4BFF123237206F075FF6FF00E00CAE757
:1045D0002E600020C7E76FF00200C4E76FF00C0008
:1045E000C1E700BFB9F3000861F3000807F4000851
:1045F00081F30008E041002073B505460E4659B925
:10460000204B4FF41D7220496FF00F051F4808F032
:10461000EDFE284602B070BD00220A6020B9194B99
:1046200040F276221A49EFE7037803F0F003102BEB
:1046300024D10620019202F0ABFD0446D8B12846F1
:1046400001A9FFF737FE054620B12146062002F0FA
:10465000BBFDDEE7019B33B90A4B40F28A220D49CC
:104660000A4808F0C3FE019B236063600023A38116
:10467000A3603460CDE74FF0FF35CAE7FFF71AFEBD
:104680000546C6E7B9F30008BCF4000807F40008C3
:10469000DAF400081F05010870B586B015460A9CBB
:1046A00050B91D4B40F2E6221C491D4808F09EFE01
:1046B0006FF00F0006B070BD027802F0F002102A11
:1046C00009D0154B40F2E7221649154808F08EFE36
:1046D0006FF00500EEE70DB90020EBE790F8202021
:1046E000920713D4C3F380068EB90190039101A9F8
:1046F0000D488DF814300495FFF7B0FD0028D9D18E
:10470000002CE9D036B1049B2360D3E70126002CAE
:10471000EBD1DDE72560CDE7B9F3000820F500080F
:1047200007F400083CF50008CD5400080321FFF70A
:104730009FBD00002DE9F047064617461D46BDF80F
:1047400020900C4629B9224BB1222249224808F078
:104750004DFE8EB91E4BB22220491F4808F046FE7E
:104760003846BDE8F04702F0B5BEF36A73B32A4697
:104770003046BDE8F047184773689C4205D0144B9B
:10478000BA221749144808F031FE06F110084046D5
:1047900006F007FE0028E3D0062002F0F9FC0446EC
:1047A0000028DDD00760476005B12D68A56021466F
:1047B000A4F80C9040463D8906F0B6FD014600285D
:1047C000D3D02046BDE8F04700F05EBFBDE8F087DB
:1047D00033F8000865F8000807F4000887F80008B7
:1047E000A6F8000810B544680146204603F00AFB0D
:1047F0002046094903F00AFB2046084903F01EFB46
:1048000020460749022203F04DFB20460549BDE83A
:10481000104003F029BB00BFCD4D0008914E0008A9
:10482000514D0008294800082DE9F0410E46044684
:1048300030B9424B4FF4C2724149424808F0D6FDAC
:1048400065780027042D6760677064D106F026FE46
:1048500094F9083000260C33A8BF277206F02AFE10
:10486000E36A1BB10022042120469847E36A1BB18A
:104870000022204611469847E36A1BB1002202211C
:104880002046984704F11007384606F08AFD18B113
:104890000021384606F048FD04F11407384606F0BA
:1048A00080FD18B10021384606F03EFD012D02D0F2
:1048B000033D012D35D894F8203023F004025B0726
:1048C00084F8202038D4A36A33B91C4B40F2B312C9
:1048D0001D491C4808F08AFDA36A1D681E710C352D
:1048E000284606F09FFD30B9144B4FF4DB72174990
:1048F000144808F07BFD0023A36206F0CFFD94F975
:1049000008300C33A8BF267206F0D4FD2846BDE857
:10491000F04106F081BD06F0C1FD267206F0CAFD29
:104920009EE7A36A43B1054B40F2BD120849054812
:10493000BDE8F04108F05ABDBDE8F08133F8000849
:104940005EF5000807F400086BF5000885F500081F
:104950009EF500082DE9F8430F46044630B9754B23
:1049600040F2E3527449754808F040FD6378012B2A
:1049700006D0704B40F2E4527149704808F036FDA1
:10498000A36A33B96B4B40F2E5526E496B4808F0AD
:104990002DFD636833B9674B40F2E6526A496748B8
:1049A00008F024FDA36A626ADB689A4206D3614B71
:1049B0004FF4BD626549614808F018FDA36A94F898
:1049C000202099689007626A1E7C01EB0209D96871
:1049D00054BFC6F380084FF001088B1A6068B3F526
:1049E000803FB0F860502ABF4FF6FF739BB246F08D
:1049F0000206AB4261D9B8F1000F5BD0002D5ED04A
:104A00002A44914206D24B4B40F2136250494B4824
:104A100008F0ECFC33462A464946606805F024FB62
:104A2000431C0646DBB2012B6BD8B8F1000F49D00E
:104A3000A36ADB689D4245D2E36A1BB12A46032183
:104A40002046984794F8203043F0100384F8203033
:104A5000002E4BD1636A1D44A36A6562DA689542F1
:104A600002D0B8F1000F3FD0DD600125606805F08D
:104A70007FFE10F10C0F01DB011D53D1A36A002250
:104A80000646DA60A36A1D681E7100230C35A36216
:104A90006362637006F002FD94F908300C33A8BF1E
:104AA000267206F007FD17B1284606F0B5FC002077
:104AB000BDE8F88346F00206A2E71D46A0E76FF0C6
:104AC0000606B5E76368B3F86020B2F5866F03D3D6
:104AD000B3F86230042BBBD9E36A002BB8D02A4666
:104AE000032120469847B3E73546BFE7721C08D13B
:104AF000606805F03DFE10F10C0F064601DB031D5A
:104B000003D1A36A0022DA60BCE7B8F1000F03D139
:104B10004FF0FF30BDE8F883A36A00226FF006066D
:104B2000DA60AFE7002DF3D0A26A00231568137195
:104B30000C35ACE733F800085EF5000807F4000810
:104B40007AF600086BF5000897F60008ADF6000845
:104B5000DFF600082DE9F84F8A46044630B9714B5C
:104B600040F243327049714808F040FC237803F06A
:104B7000F003102B06D06B4B4FF451726C496B480D
:104B800008F034FC6378042B06D0664B40F24532C3
:104B90006849664808F02AFC636833B9614B40F203
:104BA00046326549614808F021FCA36A33B95D4B80
:104BB00040F2473261495D4808F018FCA36A656815
:104BC0001B7A032B03F0010903F0020800F0848034
:104BD000B9F1000F05D02B7D5A1F012A7CD9082B73
:104BE0007AD0B8F1000F11D0AF7E17F0100773D153
:104BF0002B7D012B0CD10021284603F04DF927BB5A
:104C000042464946284603F0FFFC21E04746EFE7CD
:104C1000B9F1000F07D00021284603F0F7F8002172
:104C2000284603F039F9B8F1000F03D000212846D7
:104C300003F004F9002FE3D000222846114603F0C8
:104C400031F90021284603F00FF9284603F03AFC19
:104C5000064660B1431C0AD1A36A93F809B0BBF1C0
:104C6000000F3FD11FB15E46284603F069FDA36ADD
:104C70001D681E710023A3626370CEB937B1E36A69
:104C800066601BB13246042120469847B9F1000FF7
:104C900005D0E36A63B10022204611469847B8F177
:104CA000000F05D0E36A1BB100220221204698477D
:104CB00006F0F4FB94F908300C33A8BF267206F016
:104CC000F9FBBAF1000F03D005F10C0006F0A4FBCC
:104CD00000263046BDE8F88F0021284603F092F800
:104CE000012785E72B7D012B06D10E4B40F2E332E5
:104CF00013490E4808F07AFBB8F1000F03D01149B0
:104D0000284603F09BF8012228460F4903F0CAF811
:104D100028460E4903F0A8F82146284603F072F809
:104D2000D7E700BF33F80008ACF3000807F4000829
:104D3000B8F50008D6F50008FAF500086BF500088C
:104D40000DF60008914E0008514D00082948000852
:104D500010B5044630B91A4B4FF49C7219491A48E1
:104D600008F044FB617801291DD12046FFF7F2FDD0
:104D700094F82030DA0614D5626892B1B2F8601067
:104D8000B1F5866F0DD3B2F86220042A09D823F05A
:104D9000100384F82030E36A1BB100220221204670
:104DA0009847002010BD0429E2D1A26A1AB1537AB3
:104DB0000BB1013B537201212046FFF7CBFED7E731
:104DC00033F800085EF5000807F400082DE9F84301
:104DD0000546164698460F4629B9284BF922284918
:104DE000284808F003FB9DBB6FF00504234BFA2213
:104DF0002549244808F0FAFA2046BDE8F8833846E9
:104E0000318902F095FF304602F064FBF4E7B8F117
:104E1000000F09D006F042FB95F908300C33A8BF0B
:104E200085F8088006F046FB6EB137893146484662
:104E300006F07AFA044640B9EB6AEBB101463A460D
:104E400028469847D8E73746F0E74FF0FF34D3E7D6
:104E50006B689F4206D0094B4FF480720B4909489A
:104E600008F0C4FA05F11009484606F09AFA04461B
:104E70000028CCD1002EC2D10024BDE733F80008B1
:104E8000D4F7000807F40008F6F7000815F8000842
:104E900038B51546044670B9164B40F261121649F2
:104EA000164808F0A3FA002038BD042908D10121D2
:104EB000FFF750FE04E041780129F6D1FFF74AFDE3
:104EC0006368002BEFD0B3F86020B2F5866FEAD3A9
:104ED000B3F86230042BE6D894F8203023F01003A6
:104EE00084F82030E36A002BDDD02A4602212046D8
:104EF0009847D8E733F800085EF5000807F4000883
:104F000038B50023056804460371686828BB2B7810
:104F100003F0F003102B14D0202B1CD106F042F923
:104F200068602268506850B113781449222B04BF7E
:104F30000123037406F00CF923685B686BB9FF2347
:104F40000AE003F0D5FC686020684368002BF6D0C7
:104F5000FFF748FCF0E7FA232371236863B106F0FA
:104F60009DFA236893F908200C32A4BF22791A72A3
:104F7000BDE8384006F09EBA38BD00BF354700088E
:104F8000F8B5054607200F4602F002F9044600284E
:104F900037D0057005F0F0050023102D0372436033
:104FA0000ED0202D0CD0184B4FF42A7217491848F8
:104FB00008F01CFA2146072002F006F9002420E040
:104FC00004F110060621304606F088F90146002853
:104FD000F0D104F10C0006F0ECF9054618B13046AA
:104FE00006F08CF9E6E704F1140006F0DFF94FF063
:104FF000FF336570A361E762A5626562E56184F8CD
:1050000020502046F8BD00BF33F800080AF700081A
:1050100007F4000838B54368044633B1164B4FF423
:1050200038721649164808F0E1F904F1100006F04C
:10503000B8F930B1104B40F2E2221249104808F0A2
:10504000D5F904F1140006F0ACF930B10A4B40F286
:10505000E5220D490A4808F0C9F904F10C05284673
:1050600006F0DDF9284606F0E2F921460720BDE802
:10507000384002F0A9B800BF33F8000830F7000844
:1050800007F400085EF7000898F7000873B500F110
:1050900010050446284606F084F9B0B914342046B9
:1050A00006F07FF900283DD102B070BD237803F0EF
:1050B000F003102B16D1019E3EB1606810B131890A
:1050C00002F036FE304602F005FA01A9284606F045
:1050D00057F90130EAD1284606F010F9284606F0C3
:1050E00065F9DBE7019800F0CFFAEEE7019DB542E4
:1050F0000BD02846FFF7CAFF686818B103F020FB01
:1051000000236B602846FFF785FF01A9204606F0C3
:1051100037F90130EAD1204606F0F0F8204606F0D3
:1051200045F9C1E7004EF0E7E04100202DE9F041EC
:105130000F469046054620B96FF005042046BDE8AD
:10514000F08100F11404204606F02BF90028F3D07A
:105150006FB92C49204606F0E7F802460028EBD14B
:10516000EB6A002BE8D0014628469847E4E7E96A55
:105170002878FFF705FF064668B92249204606F061
:10518000D3F8024620B9EB6A13B101462846984786
:105190004FF0FF34D2E74760FFF724FB204686F844
:1051A0000880314606F0C0F8044618B37468002140
:1051B000204602F027FE2046002102F027FE20466E
:1051C000002102F03BFE00222046114602F06AFE5A
:1051D0000021204606F1100402F046FE002320467E
:1051E000736006F08BF8204606F0E0F83046FFF7D3
:1051F00011FFCDE7EB6A002BA0D0024601462846FE
:1052000098479BE7E0410020036870B55D7804464D
:105210006DB11B7803F0F003102B06D0404B40F229
:1052200001424049404808F0E1F8022D21D1002513
:1052300020682571FFF72AFF2368586860B11A7843
:1052400002F0F002102A33D0202A02D1C56105F005
:1052500083FF236800225A602068C36A13B10022CA
:10526000114698472068C36A63B10022022198471B
:1052700008E0032D04D1236893F820305B07D6D4CF
:10528000FB23237120680C3006F0CCF8002846D0B0
:105290002368002B43D006F001F9236893F9082016
:1052A0000C32A4BF22791A72BDE8704006F002B930
:1052B0009A6A0AB95B6A33B1194B40F235421B490D
:1052C000194808F093F82068042300214370032351
:1052D00023728462FFF73EFC08B323685B78042BDB
:1052E00006D00F4B40F23B4211490F4808F07EF8C0
:1052F000104806F0BFF8206800210C3006F071F865
:105300000C4806F0B2F823685B7843B1044B40F2D6
:105310003F4207490448BDE8704008F067B870BDD7
:1053200033F8000830F6000807F4000844F60008D7
:105330005FF60008E4410020036810B593F90820E7
:10534000044612F10C0F0FDA027123681BB306F04A
:10535000A5F8236893F908200C32A4BF22791A72A9
:10536000BDE8104006F0A6B8FA220271586800287D
:10537000EBD01B7803F0F003102B07D0202BE4D1E7
:10538000A289A16805F08AFE2071DEE7A289A168E2
:1053900002F0E0FBF8E710BD036837B593F9082089
:1053A000044612F10C0F0FDA0271236853B106F0B4
:1053B00075F8236893F908200C32A4BF22791A7279
:1053C00006F078F803B030BDF52202715868002865
:1053D000EBD01A7802F0F002102A46D15B78002B4D
:1053E0003FD1037D13B1FA232371DEE70DF10702EC
:1053F000FF2102F005FC054610B99DF80730F3E7E0
:105400002068103005F0CDFF38B12068103005F06D
:1054100075FF2068103005F0C9FF00232068237154
:10542000143005F0BEFF28B920680621143005F0BD
:1054300055FF207194F9043063B92168022328468E
:105440004B704D6002F0DEFC23680949586802F099
:1054500023FDAAE7284603F035F8236800225A60A6
:10546000A3E7022BA1D10023BEE7F023BCE700BFD6
:105470002D510008F8B500230446037103685A68EB
:1054800012B92368A3B9F8BD1B7803F0F003102B01
:10549000F7D185684FF6FF77BD422E46236828BFB7
:1054A0003E465868B1B202F043FCAD1BF4D1E8E7C8
:1054B00005F0F4FF236893F908200C32A4BF227989
:1054C0001A72BDE8F84005F0F5BF0000036810B59A
:1054D00093F90820044612F10C0F0DDA027105F061
:1054E000DDFF236893F908200C32A4BF22791A72D9
:1054F000BDE8104005F0DEBF1A7802F0F002102A75
:1055000049D15A7812B1FB232371E8E75A68002A7F
:105510003FD001225A709A6A0AB95B6A33B11F4BB5
:1055200040F283621E491F4807F060FFE36833B909
:105530001A4B40F284621C491A4807F057FF206852
:10554000002184624162FFF705FA30B323685B787B
:10555000012B06D0114B40F289621449114807F023
:1055600045FF134805F086FF206800210C3005F048
:1055700038FF0F4805F079FF23685B78012B0CD1C9
:10558000064B40F28D6209490648BDE8104007F01D
:105590002DBFF523B8E7FA23B6E710BD33F80008AE
:1055A00044F6000807F4000866F600085FF60008F5
:1055B000E441002010B504460068436863B10378F5
:1055C00003F0F003102B07D1227A4378032A01D08D
:1055D000022B01D0032B0ED1F523237105F05EFFC2
:1055E000236893F908200C32A4BF22791A72BDE80F
:1055F000104005F05FBF012B01D1FB23EDE7D3077E
:1056000001D5FFF743FD23689A6A0AB95B6A33B193
:10561000184B40F21C721849184807F0E7FE206842
:105620000423002143708462FFF794FA08B32368CF
:105630005B78042B06D00F4B40F2217210490F48C3
:1056400007F0D4FE0F4805F015FF206800210C304C
:1056500005F0C7FE0B4805F008FF23685B7843B1EF
:10566000044B40F2257206490448BDE8104007F09B
:10567000BDBE10BD33F8000844F6000807F400086A
:105680005FF60008E441002010B5044660B10068F0
:1056900020B101F01FFF0023636023602146062034
:1056A000BDE8104001F090BD10BD000008B540B944
:1056B0000F4BC2220F49104807F098FE6FF00F0001
:1056C00008BD19B90A4BC3220C49F4E71AB9084BB3
:1056D000C4220B49EFE7436833B15B680B60436852
:1056E00000205B89138008BD6FF0010008BD00BF7A
:1056F000C4F8000833F9000807F400084CF9000862
:1057000069F90008234B1B6807B513B1224A1068DA
:105710009847224D224E234C204805F0A6FE2846ED
:1057200005F0A8FE01A9304605F0C6FB284605F0A5
:105730009CFE019B33B9234669221B491B4807F095
:1057400055FEECE71A78023A042A20D8DFE802F086
:10575000030B12171B00181D07C890470199092059
:1057600001F032FDDBE7181D07C805F0CFFA0199FB
:105770000820F5E7D968986805F07AFBF7E75A68DA
:1057800098689047F3E75A6898689047C7E72346B8
:105790009B22D2E7C43F0020C83F0020E441002004
:1057A000C03F0020E0F9000810FA000807F40008E4
:1057B000F8B5074610480E46154605F0F2FD28B923
:1057C0000E4BB5220E490F4807F010FE092001F0DC
:1057D000DFFC044668B1022347608660014603701F
:1057E000C560054805F0A0FD28B12146092001F05B
:1057F000EBFC4FF0FF30F8BDC03F0020E0F900089F
:10580000D3F9000807F4000891F82B3013F0180FB3
:1058100014BF024A024AFFF7CBBF00BFD5B1000850
:10582000A9620008F8B5074612480E46154605F06D
:10583000B8FD28B9104BEE221049114807F0D6FDEB
:10584000082001F0A5FC044688B105234760866066
:105850000146037007481DB105F05AFD0020F8BD50
:1058600005F062FD28B12146082001F0ADFC4FF0A3
:10587000FF30F8BDC03F0020E0F90008D3F9000870
:1058800007F4000870B5064C0E460546204605F0A4
:10589000ECFD3046A847204605F0ECFD002070BD29
:1058A000E441002037B505460C4600F040F8134BA4
:1058B000062113481D60134B1C6005F00FFD30B12D
:1058C000114B40F2D5121149114807F08FFD1148D4
:1058D00005F0BCFD30B10C4B40F2D9120E490C481A
:1058E00007F084FD032300220C4900934FF48063EA
:1058F0000B4805F0C2FD03B030BD00BFC43F00201F
:10590000C03F0020C83F0020E0F9000882F90008ED
:1059100007F40008E4410020A5F900080557000835
:10592000C6F9000840BA80B2704700BA704708B59F
:1059300005F080FD01F0B6F901F01CFC01F067FCF8
:1059400005F00CFB02F004F9BDE8084005F066BA6A
:1059500070B51826074C05464643A05918B101F00A
:10596000B9FD0023A351182303FB0544002323752D
:1059700070BD00BFCC3F00202DE9F3470B9D894649
:1059800092469846074630B92C4B4FF48B622C490F
:105990002C4807F02BFD00221C21022001F004FE00
:1059A0000646002847D043891B2B06D8234B40F2DC
:1059B00064422549234807F019FD7468BDF8340096
:1059C000FFF7B0FFE08097F82430062B06D01B4B82
:1059D00040F26B421D491B4807F008FDD8F8003023
:1059E0004A4631463846A360B8F80430A3812B6894
:1059F000C4F81230AB880025E3820A9B1B68C4F808
:105A00000E300C9B1B682570A3610123E570637049
:105A10000823A370062323710423637140F6060351
:105A20000093534605F022FC304601F053FD284612
:105A300002B0BDE8F0874FF0FF30F9E723FB000824
:105A40005AFB000807F4000868FB000899FB0008EF
:105A50002DE9F74F3E4B0A22054600209446144696
:105A600081468046834696461E460191BEF10A0F46
:105A70001F7D11D197B94FFA80FE013018330A28E3
:105A8000F4D1019B990704D4BEF10A0F1CD1DB07A6
:105A900035D44FF0FF3009E0002FEED0002D4AD072
:105AA00029688A4659688A4545D140B203B0BDE8A5
:105AB000F08FC245E1D34FFA80FCD046DDE7CA45FE
:105AC00024BF44B2D146D8E75FFA8EF7182303FB10
:105AD00007631B7D33B11F4B40F287121E491F48DD
